:020000040800F2
:10000000500C0020F516000881080008830800083D
:10001000870800088B0800088F080008000000000F
:10002000000000000000000000000000930800082D
:1000300095080008000000009708000899080008CB
:100040000F1700080F1700080F1700080F170008F8
:100050000F1700080F1700080F1700080F170008E8
:100060000F1700080F1700080F1700080F170008D8
:100070000F1700080F1700080F1700080F170008C8
:100080000F1700080F1700080F1700080F170008B8
:100090000F1700080F1700080F1700080F170008A8
:1000A0000F1700080F1700080F1700080F17000898
:1000B0000F170008790600080F1700080F1700082F
:1000C0000F1700080F1700080F1700080F17000878
:1000D0000F170008691600080F1700080F1700080F
:1000E0000F1700080F1700080F1700080F17000858
:1000F0000F1700080F1700080F1700080F17000848
:100100000F1700080F1700080F1700080F17000837
:100110000F1700080F1700080F1700080F17000827
:100120000F1700080F1700080F1700080F17000817
:1001300000F002F800F05AF80AA090E8000C82449F
:100140008344AAF10107DA4501D100F04FF8AFF27C
:10015000090EBAE80F0013F0010F18BFFB1A43F0A5
:1001600001031847244D0000444D00000A444FF09D
:10017000000C10F8013B13F0070408BF10F8014B06
:100180001D1108BF10F8015B641E05D010F8016B4B
:10019000641E01F8016BF9D113F0080F1EBF10F8AF
:1001A000014BAD1C0C1B09D16D1E58BF01F801CBD2
:1001B000FAD505E014F8016B01F8016B6D1EF9D555
:1001C0009142D6D37047000000230024002500266A
:1001D000103A28BF78C1FBD8520728BF30C148BFAA
:1001E0000B6070471FB51FBD10B510BD03F0ACF913
:1001F0001146FFF7F7FF00F07EF903F0CAF903B4E8
:10020000FFF7F2FF03BC01F0D3F9000006293ED24C
:10021000DFE801F0033E79B4F1EFFE4A90FBF2F320
:1002200002FB130242F2107392FBF3F23032FA4BEC
:100230001A7042F2107290FBF2F302FB13024FF4B9
:100240007A7392FBF3F23032F34B5A704FF47A72B6
:1002500090FBF2F302FB1302642392FBF3F23032C1
:10026000ED4B9A70642290FBF2F302FB13020A2317
:1002700092FBF3F23032E84BDA700A2290FBF2F391
:1002800002FB13023032E44B1A7100225A7128E14A
:10029000E04A90FBF2F302FB130242F2107392FB6E
:1002A000F3F23032DD4B1A7042F2107290FBF2F32F
:1002B00002FB13024FF47A7392FBF3F23032D74B06
:1002C0005A704FF47A7290FBF2F302FB130264232C
:1002D00092FBF3F23032D14B9A70642290FBF2F32E
:1002E00002FB13020A2392FBF3F23032CB4BDA709B
:1002F0000A2290FBF2F302FB13023032C74B1A7151
:1003000000225A71EDE0C34A90FBF2F302FB1302A4
:1003100042F2107392FBF3F23032C14B1A7042F288
:10032000107290FBF2F302FB13024FF47A7392FB0C
:10033000F3F23032BA4B5A704FF47A7290FBF2F308
:1003400002FB1302642392FBF3F23032B44B9A7037
:10035000642290FBF2F302FB13020A2392FBF3F2F6
:100360003032AF4BDA700A2290FBF2F302FB130239
:100370003032AB4B1A7100225A71B2E0A54A90FBA1
:10038000F2F302FB130242F2107392FBF3F23032EB
:10039000A44B1A7042F2107290FBF2F302FB1302AC
:1003A0004FF47A7392FBF3F230329E4B5A704FF453
:1003B0007A7290FBF2F302FB1302642392FBF3F2D6
:1003C0003032984B9A70642290FBF2F302FB1302D6
:1003D0000A2392FBF3F23032924BDA700A2290FB3E
:1003E000F2F302FB130230328E4B1A7100225A7163
:1003F00077E03BE0FFE7874A90FBF2F302FB130252
:1004000042F2107392FBF3F23032874B1A7042F2D1
:10041000107290FBF2F302FB13024FF47A7392FB1B
:10042000F3F23032804B5A704FF47A7290FBF2F351
:1004300002FB1302642392FBF3F230327A4B9A7080
:10044000642290FBF2F302FB13020A2392FBF3F205
:100450003032754BDA700A2290FBF2F302FB130282
:100460003032714B1A7100225A713AE0694A90FB9E
:10047000F2F302FB130242F2107392FBF3F23032FA
:100480006A4B1A7042F2107290FBF2F302FB1302F5
:100490004FF47A7392FBF3F23032644B5A704FF49C
:1004A0007A7290FBF2F302FB1302642392FBF3F2E5
:1004B00030325E4B9A70642290FBF2F302FB13021F
:1004C0000A2392FBF3F23032584BDA700A2290FB87
:1004D000F2F302FB13023032544B1A7100225A71AC
:1004E00000BF00BF70470146002902DA484280B2CF
:1004F000704788B2FCE700F0F1FF4FF4A06001F014
:100500009DFE00F0BBFA41F61F41132000F0B8FF3A
:1005100000F0DCFA00F05EFB00F0ACFE444A454916
:10052000454800F051FF454A4549464800F024FF40
:10053000002000F0BCFB0A2001F00DF89BE04248CF
:10054000006803F0E5FE05B22846FFF7CCFF04463D
:100550000021FFF75BFE3D48006803F0D9FE05B2BD
:100560002846FFF7C0FF04460121FFF74FFE384839
:10057000006803F0CDFE05B22846FFF7B4FF04463D
:100580000221FFF743FE0223234A0021084600F020
:10059000C6FB0223214A1946002000F0C0FB0223BB
:1005A0001F4A0421002000F0BAFB244A24492548B0
:1005B00000F0E2FE2348B0F9000003F071FC0646AB
:1005C0004FF06632234B03F013FB044603F02EFA80
:1005D000214908601A48B0F9000003F061FC0646A2
:1005E0004FF066321B4B03F003FB044603F01EFA88
:1005F0001A4908601148B0F9000003F051FC0646A2
:100600004FF06632134B03F0F3FA044603F00EFA90
:10061000134927E0A086010000000020060000200A
:100620000C00002012000020180000201E000020F6
:100630002800002026000020240000202E0000209A
:100640002C0000202A000020480000204C00002040
:100650004400002066663040300000203400002056
:10066000380000200860734A7349744800F0ACFEFB
:100670000A2000F070FF62E72DE9F04F87B00121FA
:100680006F4802F044FF00287ED001216C4802F040
:100690004FFF6848B0F9000003F002FC82468B4629
:1006A0006648B0F9000003F0FBFB804652465B460B
:1006B00003F0FCF806464FF06632624B03F008FC8C
:1006C000044603F0B3F9604908605A48B0F90000E5
:1006D00003F0E6FB804689465748B0F9000003F076
:1006E000DFFB824642464B4603F0E0F806464FF0F9
:1006F0006632544B03F0ECFB044603F097F9534980
:1007000008604C48B0F90000642813DA4B48B0F98F
:10071000000042F6E061884202DD00204B4908609B
:100720004548B0F9000042F6E061884202DD002051
:10073000454908604648006803F0BEFD0646454A44
:10074000454B03F0C5FB04460D464448006803F0E2
:10075000B3FD804622462B4603F0C4FC404A414B81
:10076000CDE9000103F0B4FB82468B4637480068B0
:1007700003F0A2FD04463C4A3C4B03F0A9FB524661
:100780005B46CDE9020100E050E003F081F9CDE9DC
:10079000040103F04BF9314908603548006803F063
:1007A0008BFD80462B4A2C4B03F092FB04460D46F2
:1007B0003048006803F080FD064622462B4603F0D1
:1007C00091FC8246264A274B03F082FBCDE90201C9
:1007D0001D48006803F070FD0446234A234B03F0D4
:1007E00077FBCDE90001DDE9022303F051F9CDE902
:1007F000040103F01BF91F4908601F48006803F05B
:100800005BFD8046134A144B03F062FB82468B4625
:100810001A48006803F050FD064652465B4603F056
:1008200061FC044603F002F91449086007B0BDE812
:10083000F08F000028000020260000202400002067
:100840000004004066A64C40480000204C000020F8
:1008500030000020FCA9F1D24D62603F3C00002036
:100860005C8FC2F5285CEF3F7B14AE47E17A943F82
:100870003400002040000020380000204400002008
:10088000704700BFFEE700BFFEE700BFFEE700BF06
:10089000FEE7704770477047704700000CB50020B6
:1008A000019000906C48006840F480306A4908600C
:1008B00000BF6948006800F4003000900198401CB7
:1008C0000190009818B90198B0F5A06FF1D1624875
:1008D000006800F4003010B10120009001E0002019
:1008E00000900098012843D15C48006840F0100057
:1008F0005A4908600846006820F00300086008466E
:10090000006840F00200086053484068524948605F
:100910000846406848600846406840F48060486087
:100920000846406820F47C1048600846406840F45F
:10093000E81048600846006840F08070086000BF1A
:100940004548006800F000700028F9D0424840682F
:1009500020F00300404948600846406840F002002B
:10096000486000BF3C48406800F00C000828F9D1FE
:100970000CBD10B5FFF792FF10BD10B536480068EA
:1009800040F0010034490860084640683449084096
:100990003149486008460068324908402E490860DD
:1009A0000846006820F4802008600846406820F46B
:1009B000FE0048604FF41F008860FFF7DAFF4FF039
:1009C00000602949086010BD10B5002100200022F8
:1009D000214B5B6803F00C0121B1042906D00829E2
:1009E00028D107E0214B224C236027E01F4B204CED
:1009F000236023E0184B5B6803F47010164B5B68B0
:100A000003F48032022303EB904022B9194B434395
:100A1000174C23600DE0104B5B6803F4003323B1E7
:100A2000144B4343124C236003E0104B4343104CE0
:100A3000236003E00D4B0E4C236000BF00BF064B4C
:100A40005B68C3F303130C4CE15C094B1B68CB40A0
:100A5000074C236010BD000000100240002002403F
:100A60000000FFF8FFFFF6FE08ED00E000127A003C
:100A70005000002000093D005400002008B501216D
:100A8000242001F073F94FF48070ADF800001020BD
:100A90008DF8030003208DF802006946094800F034
:100AA000A9FE4FF48071074800F051FF0420ADF813
:100AB00000006946044800F09DFE0421024800F051
:100AC00046FF08BD000801400014014000B585B094
:100AD0000121480501F057F90121082001F046F9EC
:100AE000C020ADF8000003208DF802001C208DF816
:100AF00003006946F44800F07DFEF44801F00CFC68
:100B00000020ADF808004BF6FF70ADF80A00302069
:100B1000ADF80C004FF48060ADF80E000001ADF8A8
:100B20001000EB4801900121E84801F08CFC01A97C
:100B3000E64801F00AFC05B000BD70B504460D465C
:100B400000BF4FF40031E14801F0A4FD0028F8D1C6
:100B50000121DE4801F09BFC00BFDE49DB4801F0CB
:100B600077FD0028F9D000227821D84801F0E5FC73
:100B700000BFD949D54801F06BFD0028F9D02146C6
:100B8000D24801F0D4FC00BFD349891CCF4801F002
:100B90005FFD0028F8D02946CC4801F0C8FC00BF12
:100BA000CD49891CC94801F053FD0028F8D0012126
:100BB000C64801F078FC70BD10B5044621460020FF
:100BC000FFF7BBFF10BD10B5044621464020FFF7DC
:100BD000B4FF10BD10B5642000F0BDFCAE20FFF7DF
:100BE000EBFF2020FFF7E8FF1020FFF7E5FFB02024
:100BF000FFF7E2FFC820FFF7DFFF0020FFF7DCFF71
:100C00001020FFF7D9FF4020FFF7D6FF8120FFF724
:100C1000D3FFFF20FFF7D0FFA120FFF7CDFFA620D5
:100C2000FFF7CAFFA820FFF7C7FF3F20FFF7C4FF69
:100C3000A420FFF7C1FFD320FFF7BEFF0020FFF77E
:100C4000BBFFD520FFF7B8FFF020FFF7B5FFD92095
:100C5000FFF7B2FF2220FFF7AFFFDA20FFF7ACFF6C
:100C60001220FFF7A9FFDB20FFF7A6FF2020FFF7E8
:100C7000A3FF8D20FFF7A0FF1420FFF79DFFAF20FB
:100C8000FFF79AFF10BD70B504460D4605F1B0019F
:100C9000C8B2FFF791FF102141EA1410FFF78CFF53
:100CA00004F00F0141F00100FFF786FF70BD70B541
:100CB0000646002415E004F1B001C8B2FFF77CFF3E
:100CC0000020FFF779FF1020FFF776FF002504E0F2
:100CD0003046FFF778FF681CC5B2802DF8DB601C3A
:100CE000C4B2082CE7DB70BD10B50020FFF7DFFFB2
:100CF00010BD10B58D20FFF75FFF1420FFF75CFFDC
:100D0000AF20FFF759FF10BD10B58D20FFF754FF3E
:100D10001020FFF751FFAE20FFF74EFF10BD2DE969
:100D2000F0470646894617469A464FF000080024C9
:100D30000025BAF1010F03D0BAF1020F5ED125E010
:100D400020E0785D203800F0FF087E2E04DD0026CC
:100D500009F1010000F0FF0949463046FFF793FF13
:100D6000002409E008EB48015C4A02EB4101085D00
:100D7000FFF729FF601CC4B2062CF3DBB01DC6B21E
:100D8000681CC5B2785D0028DBD137E032E0785DC1
:100D9000203800F0FF08782E04DD002609F101005C
:100DA00000F0FF0949463046FFF76DFF002407E0D9
:100DB00004EB08114A4A505CFFF705FF601CC4B2FF
:100DC000082CF5DB09F10100C1B23046FFF75BFFEB
:100DD000002408E004EB08110831414A505CFFF799
:100DE000F2FE601CC4B2082CF4DB06F10800C6B2A7
:100DF000681CC5B2785D0028C9D100BF00BFBDE83E
:100E0000F0872DE9F04180460E46174600247D010B
:100E100031464046FFF737FF00BF06E03149485DE5
:100E2000FFF7D1FE6D1C601CC4B2102CF6DB701CE9
:100E3000C1B24046FFF727FF002406E02949485D7C
:100E4000FFF7C1FE6D1C601CC4B2102CF6DBBDE8C0
:100E5000F0812DE9F05F06460F4690461C46DDF80E
:100E600028A04FF0000BE11704EB5171C910A4EB5F
:100E7000C10131B92046E11704EB5171C1F3C70537
:100E800006E02046E11704EB5171C910491CCDB2B0
:100E90003D4614E029463046FFF7F5FEB1460AE02C
:100EA00059460BF1010B1AF80100FFF78CFE09F10E
:100EB000010000F0FF09C145F2DB681CC5B2A54284
:100EC000E8DBBDE8F09F0000000C0140005400404A
:100ED000801A06000100030082000700D0450008C8
:100EE000F8470008640000201CB50121082000F02C
:100EF0003DFF10208DF807004FF44070ADF804005E
:100F000003208DF8060001A9F84800F073FC0121C8
:100F1000102000F02BFF4FF4C050ADF8000010205F
:100F20008DF8030003208DF802006946F04800F0B8
:100F300061FC4FF4C051EE4800F009FD0120ED497D
:100F40000860ED49C1F8A0011CBD10B5E748001DBF
:100F5000006820F00F00E549091D08600846006898
:100F600040F0030008600120E249091F0860E249DF
:100F7000C1F8A401022000F0CAFA0020DD49091FCF
:100F80000860022000F0C3FA0020DB49C1F8A40188
:100F900010BD10B5D548001D006820F00F00D349E2
:100FA000091D08600846006840F003000860002042
:100FB000D0490860D049C1F8A001022000F0A7FA8A
:100FC0000120CC490860CC49C1F8A001022000F002
:100FD0009EFA10BD10B50024C448001D006820F022
:100FE0000F00C249091D08600846006840F008006B
:100FF00008600120BF49091F0860022000F087FA3D
:101000000120BD49C1F8A401022000F080FA07E0E8
:10101000601CC4B2FA2C03DDFFF7BBFF012010BD3A
:10102000B448843800680028F2D1B249086000BF93
:10103000F5E710B50020AF490860AC48001D006816
:1010400020F00F00A949091D08600846006840F01B
:10105000030008600020A849C1F8A001022000F0A8
:1010600056FA0120A3490860022000F050FA00203F
:10107000A149C1F8A40110BD10B500209D49086028
:101080009A48001D006820F00F009849091D08606B
:101090000846006840F00300086001209649C1F846
:1010A000A001022000F033FA0120924908600220DA
:1010B00000F02DFA00209049C1F8A40110BD70B5D0
:1010C00004468A48001D006820F00F008749091D6A
:1010D00008600846006840F0030008600020854969
:1010E0000860002517E0E0098249091F08606006D2
:1010F000040E022000F00BFA01207F49C1F8A40180
:10110000022000F004FA00207A490860022000F072
:10111000FEF9681CC5B2082DE5DB70BD70B505464B
:1011200000247248001D006820F00F006F49091D5F
:1011300008600846006840F008000860002616E0D5
:1011400000206C490860022000F0E1F901206A49A2
:10115000C1F8A4016006040E66488438006808B12E
:10116000601CC4B2022000F0D2F9701CC6B2082E76
:10117000E6DB15B9FFF780FF01E0FFF75AFF2046D5
:1011800070BD70B505460C46FFF7DFFED020FFF7B7
:1011900096FFFFF71FFF18B1FFF7FBFE012070BDA0
:1011A0002846FFF78CFFFFF715FF2046FFF787FF64
:1011B000FFF710FF18B1FFF7ECFE0120EFE7FFF794
:1011C000E8FE0020EBE770B50446FFF7BEFED02036
:1011D000FFF775FFFFF7FEFE2046FFF770FFFFF7F2
:1011E000F9FEFFF7B2FED120FFF769FFFFF7F2FE2D
:1011F0000020FFF793FF0546FFF7CBFE284670BDA2
:1012000070B504460025BC2C01DB012510E0622CE2
:1012100001DB02250CE02A2C01DB032508E0142C5D
:1012200001DB042504E00A2C01DB052500E006258E
:1012300029461A20FFF7A5FF70BD70B50446B4F526
:101240007A7F01DD4FF47A74042C00DA04244FF421
:101250007A7090FBF4F0401EC5B229461920FFF7C2
:1012600090FF0546264604EBD671C1F34F00FFF709
:10127000C7FF70BD10B5FFF737FE80216B20FFF769
:1012800080FF642000F067F900216B20FFF779FFF1
:1012900018211B20FFF775FF00211C20FFF771FFAD
:1012A0003220FFF7CAFF00213820FFF76AFF002134
:1012B0006A20FFF766FF00212320FFF762FF8021ED
:1012C0003720FFF75EFF7520FFF77DFF0446682C8F
:1012D00014D101216B20FFF754FF00216C20FFF790
:1012E00050FF3220FFF7A9FF0AE00000000C014088
:1012F00000100140A481214200802142012010BD44
:101300000020FCE72DE9F04106460F4614461D4635
:10131000FFF71BFE002141EA4601C8B2FFF7CFFEEE
:10132000FFF758FE20B1FFF734FE0120BDE8F08141
:101330003846FFF7C4FEFFF74DFEFFF706FE01211A
:1013400001EB4601C8B2FFF7BAFEFFF743FE0DE01E
:10135000012C04D10020FFF7E1FE287003E00120FA
:10136000FFF7DCFE2870601EC4B26D1C002CEFD1AC
:10137000FFF70FFE0020D9E72DE9FC4104460D469A
:1013800016466B46062243216820FFF7BBFF07463F
:10139000BFB99DF801009DF8001040EA012000B29D
:1013A00020809DF803009DF8021040EA012000B261
:1013B00028809DF805009DF8041040EA012000B245
:1013C00030803846BDE8FC812DE9FC4104460D46DD
:1013D00016466B4606223B216820FFF793FF07461F
:1013E000BFB99DF801009DF8001040EA012000B24D
:1013F00020809DF803009DF8021040EA012000B211
:1014000028809DF805009DF8041040EA012000B2F4
:1014100030803846BDE8FC812DE9F84F6B4602224A
:1014200041216820FFF76EFF9DF801009DF8001034
:1014300040EA01200FFA80FA504602F031FD804662
:1014400000220B4B02F0D4FB06460A4A0A4B02F07C
:101450001FFB044602F0EAFA83460849584602F0A8
:1014600073FF044602F054FF00B2BDE8F88F00009D
:1014700000407540A4703D0AD74342400000C84276
:101480007FB505460C460121022000F07CFCADF83A
:101490000850ADF804400020ADF80A00ADF8060091
:1014A00001A90D4801F00EFA012211460A4801F087
:1014B00080FD1D208DF8000003208DF801008DF8BF
:1014C000020001208DF80300684600F0BCFE0121F7
:1014D000014801F053FD7FBD0004004010B56FF0DE
:1014E000040000F0FAFE2E4800682E49B0FBF1F02F
:1014F0002D4908700846007800EB4001C1EBC01090
:101500004FF6FF7101EAC0002849088010BD01466E
:10151000254A12784A434FF0E0235A6100229A612B
:101520001A46126942F001021A6100BF4FF0E02230
:10153000106900F001021AB100F48032002AF5D0DF
:101540004FF0E022126922F001024FF0E0231A610D
:1015500000229A6170470146144A12884A434FF0AC
:10156000E0235A6100229A611A46126942F0010290
:101570001A6100BF4FF0E022106900F001021AB1B9
:1015800000F48032002AF5D04FF0E022126922F0F8
:1015900001024FF0E0231A6100229A6170470000B7
:1015A0005000002000127A000405002006050020EB
:1015B000014600BF704700BF4A4A128802F040024D
:1015C000002AF9D0C2B2474B1B1D1A80704710B5D4
:1015D00086B00446012144F2040000F0C7FB4FF43A
:1015E0000070ADF8140003208DF8160018208DF857
:1015F000170005A93C4800F0FDF84FF48060ADF8F5
:10160000140004208DF8170005A9374800F0F2F8FF
:1016100025208DF8000000208DF8010003208DF8B2
:10162000020001208DF80300684600F00CFE0194D2
:101630000020ADF80800ADF80A00ADF80C00ADF8D8
:1016400010000C20ADF80E0001A9264800F035FC72
:10165000012240F22551234800F0C7FC0121214816
:1016600000F0B7FC06B010BD10B540F225511D4882
:1016700000F0A0FD10B31B4800F01CFDC4B21B48D5
:10168000008800F40040C8B91848008800F4804081
:1016900060B10A2C03D000201449088020E01348D0
:1016A000008840F400401149088019E00D2C06D153
:1016B0000E48008840F480400C49088010E00B4838
:1016C0000088C0F30D000A490C5408480088401CEB
:1016D0000649088008460088C72801DD00200880E8
:1016E00010BD000000380140000801400C0500203A
:1016F000240500200948804709480047FEE7FEE727
:10170000FEE7FEE7FEE7FEE7FEE7FEE7FEE7FEE7B1
:1017100004480549054A064B704700007B0900084C
:101720003101000850060020500C00205008002015
:101730005008002010B50446CC48844208D101214D
:10174000042000F02DFB0021042000F029FB46E0DE
:10175000C748844208D10121082000F021FB002164
:10176000082000F01DFB3AE0C248844208D1012164
:10177000102000F015FB0021102000F011FB2EE0DE
:10178000BD48844208D10121202000F009FB00213E
:10179000202000F005FB22E0B848844208D1012156
:1017A000402000F0FDFA0021402000F0F9FA16E098
:1017B000B348844208D10121802000F0F1FA0021D1
:1017C000802000F0EDFA0AE0AE48844207D1012102
:1017D000801500F0E5FA0021A01500F0E1FA10BD37
:1017E00010B50121084600F0DBFA0021012000F0CD
:1017F000D7FA10BD2DE9F041024600250026002051
:1018000000230024002791F803C00CF00F0591F885
:1018100003C00CF0100CBCF1000F03D091F802C013
:101820004CEA050591F800C0BCF1000F31D01468F6
:1018300000202BE04FF0010C0CFA00F3B1F800C0CF
:101840000CEA03069E4220D183004FF00F0C0CFAE5
:1018500003F7BC4305FA03FC4CEA040491F803C007
:10186000BCF1280F06D14FF0010C0CFA00FCC2F8B5
:1018700014C00AE091F803C0BCF1480F05D14FF045
:10188000010C0CFA00FCC2F810C0401C0828D1D38F
:101890001460B1F800C0BCF1FF0F34DD54680020C3
:1018A0002EE000F1080C4FF0010808FA0CF3B1F833
:1018B00000C00CEA03069E4221D183004FF00F0CBA
:1018C0000CFA03F7BC4305FA03FC4CEA040491F854
:1018D00003C0BCF1280F05D100F1080C08FA0CF880
:1018E000C2F8148091F803C0BCF1480F07D100F191
:1018F000080C4FF0010808FA0CF8C2F81080401CE0
:101900000828CED35460BDE8F0814FF6FF71018006
:10191000022181700421C170704702460020936843
:101920000B400BB1012000E00020704701468868A1
:1019300080B2704702460020D3680B400BB10120F3
:1019400000E0002070470146C86880B2704701611E
:101950007047416170470AB1016100E04161704721
:10196000C16070474FF480320A43826181618261B5
:1019700082698269704702460020434B18684FF61F
:101980008073184040EA021008433F4B18607047CC
:101990003E49C8617047F0B50A4600230024002183
:1019A000002500F00046B6F1004F02D1364EF16935
:1019B00001E0354E7168C0F3034583B200F4401670
:1019C000B6F5401F08D121F070612F4E766826F0E1
:1019D00070662D4F7E6012E000F48016B6F5801F11
:1019E00006D1032606FA05F4A14341F0706106E032
:1019F000460D360103FA06F6B14341F0706122B19B
:101A0000460D360103FA06F6314300F00046B6F102
:101A1000004F02D11C4EF16101E01B4E7160F0BD20
:101A200030B500228B071C0F0F2303FA04F2164B6C
:101A300008338C1053F824309343134C08348D1022
:101A400044F8253023468C1053F824308C07240F9B
:101A500000FA04F423430C4C08348D1044F825306C
:101A600030BD0A49DC3108607047000000080140C1
:101A7000000C01400010014000140140001801401A
:101A8000001C0140002001400000014000002042F5
:101A9000DF48006840F00100DD4908600846406802
:101AA000DC490840DA49486008460068DA490840DD
:101AB000D74908600846006820F48020086008467E
:101AC000406820F4FE0048604FF41F0088607047B3
:101AD000CF49096821F48031CD4A11601146096867
:101AE00021F480211160B0F5803F03D0B0F5802F44
:101AF0000ED106E0C649096841F48031C44A11603C
:101B000007E0C349096841F4A021C14A116000E01F
:101B100000BF00BF704710B501460022002300201F
:101B20004A11012A02D1BA4C236806E0022A02D1E6
:101B3000B74C236A01E0B64C636A01F01F0201242E
:101B400094401C400CB1012000E0002010BD38B5CD
:101B5000002000900024002500BF3120FFF7DBFFAC
:101B600005460098401C00900098B0F5A06F01D089
:101B7000002DF2D03120FFF7CEFF08B1012400E0A4
:101B80000024204638BD01460020A14A106820F0FC
:101B9000F80040EAC10010607047A0490860704733
:101BA000024600209A4B586820F47C1042EA010358
:101BB0001843974B5860704798490866704701462C
:101BC0000020934A506820F003000843506070479B
:101BD0008F48406800F00C007047014600208C4A96
:101BE000506820F0F0000843506070470146002024
:101BF000874A506820F4E06008435060704701460F
:101C00000020834A506820F4605040EAC1005060D0
:101C1000704729B17E4A527A02437D4B5A7204E0E2
:101C20007B4A527A82437A4B5A7270477B49D83149
:101C30000860704701460020754A506820F4404013
:101C40000843506070470021714A20321170704A79
:101C500082F82010012802D004280AD104E00121D2
:101C60006B4A2032117005E00521694A203211705B
:101C700000E000BF00BF70476949086070476449D1
:101C8000096A0143624A1162704765494439086034
:101C9000704730B500210022002400235C4D6D68A0
:101CA00005F00C0121B1042905D0082923D105E054
:101CB0005C4D056022E05B4D05601FE0544D6D6892
:101CC00005F47012524D6D6805F48034022505EB61
:101CD00092421CB9544D554305600BE04C4D6D6864
:101CE00005F400351DB1504D5543056002E04D4DE2
:101CF0005543056002E04B4D056000BF00BF444DF9
:101D00006D6805F0F0010909484D6B5C0568DD4020
:101D100045603F4D6D6805F4E061090A434D6B5C19
:101D20004568DD4085603A4D6D6805F46051C90A2B
:101D30003E4D6B5C4568DD40C560354D6D6805F412
:101D40004041890B3A4D6B5CC568B5FBF3F5056105
:101D500030BD29B12E4A526902432D4B5A6104E02D
:101D60002B4A526982432A4B5A61704729B1284A4B
:101D700092690243264B9A6104E0254A92698243A4
:101D8000234B9A61704729B1214AD2690243204B03
:101D9000DA6104E01E4AD26982431D4BDA61704762
:101DA00029B11B4AD2680243194BDA6004E0184A91
:101DB000D2688243164BDA60704729B1144A12691F
:101DC0000243134B1A6104E0114A12698243104B1B
:101DD0001A61704712494039086070470F49C8645A
:101DE00070470B49C87170470948406A40F08070DD
:101DF00007494862704701460020054A92680A4038
:101E00000AB1012000E00020704701498872704744
:101E1000001002400000FFF8FFFFF6FE0000424203
:101E20008004424200127A0000093D000E050020A5
:101E30001E05002010B50446FB48844209D101214B
:101E40008803FFF7ADFF00214FF48040FFF7A8FFA4
:101E500032E0F648844209D101214804FFF7ADFF82
:101E600000214FF40030FFF7A8FF25E0F04884423E
:101E700009D101218804FFF7A0FF00214FF4802041
:101E8000FFF79BFF18E0EB48844209D10121C80409
:101E9000FFF793FF00214FF40020FFF78EFF0BE0C8
:101EA000E548844208D101210805FFF786FF00219B
:101EB0004FF48010FFF781FF10BD2DE9F04786B089
:101EC00005460E460024A24600BFA1460027B08961
:101ED00000B100BF2F462C8A4CF6FF700440F088FA
:101EE00004432C82AC894EF6F3100440B08831894B
:101EF0000843718908430443AC81AC8A4FF6FF4024
:101F00000440B0890443AC8201A8FFF7C2FEC64872
:101F1000874202D1DDF810A001E0DDF80CA0A8890D
:101F200000F4004040B10AEBCA0000EB0A1031682F
:101F30004900B0FBF1F807E00AEBCA0000EB0A1019
:101F400031688900B0FBF1F86420B8FBF0F00401BF
:101F50002009642101FB1089A88900F4004040B1E8
:101F6000322000EBC900B0FBF1F000F007000443A1
:101F700008E0322000EB09106421B0FBF1F000F022
:101F80000F0004432C8106B0BDE8F0874FF41651D2
:101F9000016000218180C18001810C2141810021EB
:101FA0008181704710B502460020108A4FF2FF036E
:101FB00018400B884C8823438C882343CC882343C8
:101FC0001843108210BD0021018041808180C180B2
:101FD000704721B1828942F40052828104E08289F3
:101FE0004DF6FF731A4082817047F0B50346002416
:101FF00000260025002040F66A17B94200D100BF34
:102000001846C1F3421401F01F06012707FA06F52E
:10201000012C01D10C3004E0022C01D1103000E081
:1020200014301AB107682F43076002E00768AF4316
:102030000760F0BD1AB1838A0B43838202E0838A72
:102040008B4383827047028A4FF6F0731A400282F4
:10205000028A0A430282704782894FF2FF731A4054
:10206000828182890A438281704721B1828942F04C
:102070000202828104E082894FF6FD731A40828158
:102080007047028A4FF6DF731A400282028A0A43BF
:102090000282704721B1028A42F48042028204E047
:1020A000028A4BF6FF731A4002827047C1F308029E
:1020B0008280704701468888C0F308007047818994
:1020C00041F0010181817047028BD2B20283028B01
:1020D00042EA012202837047028B02F47F420283AC
:1020E000028B0A430283704721B1828A42F02002A8
:1020F000828204E0828A4FF6DF731A408282704740
:1021000021B1828A42F01002828204E0828A4FF674
:10211000EF731A408282704721B1828A42F008022E
:10212000828204E0828A4FF6F7731A4082827047F7
:1021300021B1828942F40042828103E08289C2F3A4
:102140000E028281704721B1828A42F4006282824B
:1021500004E0828A4FF2FF731A4082827047828ABB
:102160004FF6FB731A408282828A0A43828270474A
:1021700021B1828A42F00202828204E0828A4FF612
:10218000FD731A408282704702460020B1F5007F3D
:1021900000D100BF13880B400BB1012000E00020EC
:1021A000704701F40072B2F5007F00D100BFCA434E
:1021B0000280704770B502460024002300250020ED
:1021C00040F66A16B14200D100BFC1F3421501F0DA
:1021D0001F03012606FA03F3012D02D1968933402D
:1021E00006E0022D02D1168A334001E0968A334080
:1021F0000C12012606FA04F41688344013B10CB10F
:10220000012000E0002070BD10B50022002340F640
:102210006A14A14200D100BF0A1201249440A3B263
:10222000DC43048010BD0000003801400044004041
:1022300000480040004C004000500040314901433C
:10224000314A1160704770B5002100230F22C47815
:1022500004B32D4C246804F4E064C4F5E064210A5E
:10226000C1F10403CA40447804FA03F184781440AD
:1022700021430901254C0678A155047804F01F0577
:102280000124AC4005786D11AD0005F1E025C5F8DD
:10229000004109E0047804F01F050124AC401C4D06
:1022A0000678761145F8264070BD1A4A0A40024366
:1022B000154B1B1F1A60704739B1134A121D126863
:1022C0000243114B1B1D1A6006E00F4A121D1268D3
:1022D00082430D4B1B1D1A607047042808D14FF034
:1022E000E021096941F004014FF0E022116107E0AB
:1022F0004FF0E021096921F004014FF0E022116163
:10230000704700000000FA050CED00E000E400E07A
:1023100080E100E080FFFF1F10B50446F7488442CB
:1023200009D101214805FFF748FD00214FF40010B5
:10233000FFF743FD08E001218805FFF73EFD00217E
:102340004FF48000FFF739FD10BD2DE9F04385B053
:1023500004460D460026B1460427DFF8A483A6886C
:102360004FF6C07006406846FFF793FCDDF8088022
:10237000E448B8FBF0F01FFA80F946EA0906A680A7
:1023800020884FF6FE71084020800026DE4928682C
:1023900088420CD828684000B8FBF0F087B2042FC0
:1023A00000DA04273E4309F10100208427E0E88891
:1023B0004BF6FF71884206D1286800EB4000B8FB5D
:1023C000F0F087B209E0286800EBC00101EB0010D3
:1023D000B8FBF0F087B247F48047C7F30B0008B9A9
:1023E00047F0010747F4004006434FF4967009FB9D
:1023F00000F04FF47A7190FBF1F0401C2084A6832A
:10240000208840F00100208026884FF6F5300640F5
:10241000A8886989084306432680A8892989084332
:10242000208105B0BDE8F08341F2883101600021D0
:1024300081804BF6FF71C1800021018141814FF401
:1024400080418181704721B1028842F001020280FF
:1024500004E002884FF6FE731A400280704721B1F3
:10246000828842F40062828004E082884FF2FF7327
:102470001A408280704721B1828842F48052828063
:1024800004E082884EF6FF731A408280704721B1C3
:10249000028842F48072028004E002884FF6FF63F3
:1024A0001A400280704721B1028842F40072028013
:1024B00004E002884FF6FF531A400280704721B1B2
:1024C000028842F48062028004E002884FF6FF3303
:1024D0001A40028070470A46002181894FF6017335
:1024E000194002F0FE0319438181704721B18289AE
:1024F00042F00102828104E082894FF6FE731A40A5
:102500008281704721B1028842F04002028004E0DB
:1025100002884FF6BF731A40028070471AB1838851
:102520000B43838002E083888B4383807047018262
:1025300070470146088AC0B2704712B141F00101EC
:1025400002E04FF6FE7319400182704708B502465B
:1025500000200090009200980844009000980088A5
:1025600008BD21B1028842F40042028003E00288E3
:10257000C2F30E0202807047B1F5006F04D10288E9
:1025800042F40062028004E002884FF2FF731A40B6
:1025900002807047B1F5005F04D1028842F4005216
:1025A000028004E002884DF6FF731A4002807047F3
:1025B00021B1028842F48052028004E002884EF683
:1025C000FF731A4002807047B1F5006F04D1028892
:1025D00042F40062028004E002884FF2FF731A4066
:1025E0000280704721B1028842F02002028004E09C
:1025F00002884FF6DF731A40028070470146088B4D
:102600000012704721B1028842F01002028004E0FB
:1026100002884FF6EF731A400280704721B9028892
:1026200042F08002028004E002884FF67F731A4075
:1026300002807047B1F5804F05D0828B4BF6FF7357
:102640001A40828303E0828B42F480428283704787
:1026500070B502460024002500230020958A138BC4
:102660001B0445EA030626F07F4404EA01068E4275
:1026700001D1012000E0002070BD10B5014600200E
:10268000002300228B8A0A8B120443EA020424F0FE
:102690007F4010BD0CB5024600200023019300933B
:1026A00000920B0F019321F07F41019B1BB1009B16
:1026B0001433009303E0090C009B18330093009B34
:1026C0001B680B400BB1012000E000200CBD002274
:1026D00021F07F42D3438382704730B50246002009
:1026E0000023948801F0E06504EA154321F07F415E
:1026F000948A0C4054B14BB1012008E000540040D2
:1027000000127A0040420F00A0860100002030BD78
:10271000002221F07F42D3438382704710B50446E4
:10272000FE48844208D10121C014FFF739FB002183
:10273000E014FFF735FBC4E0B4F1804F08D101216C
:102740000846FFF73AFB00210120FFF736FBB8E00F
:10275000F348844208D101210220FFF72EFB00211B
:102760000220FFF72AFBACE0EE48844208D10121A9
:102770000420FFF722FB00210420FFF71EFBA0E04E
:10278000E948844208D101210820FFF716FB002107
:102790000820FFF712FB94E0E448844208D10121AD
:1027A0001020FFF70AFB00211020FFF706FB88E04E
:1027B000DF48844208D101212020FFF7FEFA0021E2
:1027C0002020FFF7FAFA7CE0DA48844208D10121A0
:1027D0004014FFF7E5FA00216014FFF7E1FA70E01A
:1027E000D548844209D10121C804FFF7D9FA002154
:1027F0004FF40020FFF7D4FA63E0D048844209D1B7
:1028000001210805FFF7CCFA00214FF48010FFF7F3
:10281000C7FA56E0CA48844209D101214805FFF7AA
:10282000BFFA00214FF40010FFF7BAFA49E0C5489B
:10283000844208D101214020FFF7BFFA0021402047
:10284000FFF7BBFA3DE0C048844208D10121802057
:10285000FFF7B3FA00218020FFF7AFFA31E0BB4861
:10286000844208D101218015FFF7A7FA0021A015A5
:10287000FFF7A3FA25E0B648844209D101210804F4
:10288000FFF78EFA00214FF48030FFF789FA18E045
:10289000B048844209D101214804FFF781FA0021A0
:1028A0004FF40030FFF77CFA0BE0AB48844208D1CC
:1028B00001218804FFF774FA00214FF48020FFF70C
:1028C0006FFA10BD00220288944B98420ED0994BAB
:1028D00098420BD0B0F1804F08D0914B984205D070
:1028E000904B984202D0904B984204D14FF68F7390
:1028F0001A404B881A438D4B984207D08C4B984214
:1029000004D04FF6FF431A40CB881A4302808B88CD
:1029100083850B880385814B98420BD0854B984269
:1029200008D08B4B984205D08A4B984202D08A4BF4
:10293000984201D10B7A038601238382704770B5D8
:10294000002400220023058C4FF6FE7635400584D6
:10295000028C8388048B4FF68F752C40B51E2C405B
:102960000D882C43751E2A400D892A434D882A4321
:102970006A4DA8420BD06F4DA84208D0744DA842B2
:1029800005D0744DA84202D0734DA84213D14FF622
:10299000F7752A404D892A434FF6FB752A408D88EA
:1029A0002A434FF6FF652B404FF6FF552B408D898C
:1029B0002B43CD892B4383800483CD888586028475
:1029C00070BD70B5002400220023058C4FF6EF7611
:1029D00035400584028C8388048B48F6FF752C40B3
:1029E0004FF6FF452C400D884FF6FF7606EA052589
:1029F0002C434FF6DF752A400D8906EA05152A4358
:102A00004D8806EA05152A43444DA84202D0494D97
:102A1000A8421DD14FF67F752A404D894FF6FF76AB
:102A200006EA05152A434FF6BF752A408D8806EA47
:102A300005152A434FF6FF352B404FF2FF752B400B
:102A40008D8906EA85052B43CD8906EA85052B434A
:102A500083800483CD880587028470BD70B500240F
:102A600000220023058C4FF6FF6635400584028C5A
:102A70008388848B4FF68F752C404FF6FC752C4065
:102A80000D882C434FF6FF552A400D894FF6FF76EF
:102A900006EA05252A434D8806EA05252A431F4DE7
:102AA000A84202D0234DA8421DD14FF2FF752A4003
:102AB0004D894FF6FF7606EA05252A434FF6FF3586
:102AC0002A408D8806EA05252A434EF6FF752B40DD
:102AD0004DF6FF752B408D8906EA05152B43CD89F0
:102AE00006EA05152B4383808483CD88858702847D
:102AF00070BD70B5002200230024058C4EF6FF76D1
:102B000035400584038C8488828B48F6FF752A4003
:102B10004FF6FF452A400D8820E00000002C0140C0
:102B20000004004000080040000C0040001000407D
:102B30000014004000340140004C014000500140AE
:102B40000054014000180040001C004000200040DC
:102B50000040014000440140004801404FF6FF762C
:102B600006EA05252A434DF6FF752B400D8906EA36
:102B700005352B434D8806EA05352B43FA4DA8420F
:102B800002D0FA4DA84208D14BF6FF752C408D8932
:102B90004FF6FF7606EA85152C4384808283CD8824
:102BA000A0F84050038470BD828B4FF2FF331A406F
:102BB0008283828B4FF6FF7303EA01231A438283D9
:102BC0007047F0B50C461546002200210026078C00
:102BD0004EF6FF7C07EA0C070784828B018C4FF6C8
:102BE000FF7707EA043640F6FF473A404FF6FF7793
:102BF00007EA05273A434FF6FF7707EA03373A43D8
:102C0000D94FB8420ED0D94FB8420BD0B0F1804F57
:102C100008D0D74FB84205D0D64FB84202D0D64FD1
:102C2000B84206D14DF6FF77394046F48057394314
:102C300005E047F6FF57394044F480573943828313
:102C40000184F0BD828B4FF6F3731A408283828B2E
:102C50000A4382837047F0B50C46154600220021D6
:102C60000026078C4FF6FF6C07EA0C070784828B5F
:102C7000018C4FF6FF7707EA04264FF60C773A40AF
:102C80004FF6FF7707EA03172F433A43B64FB84290
:102C90000ED0B64FB8420BD0B0F1804F08D0B44F31
:102CA000B84205D0B34FB84202D0B34FB84206D1B4
:102CB0004FF6FF57394046F48077394305E04FF22D
:102CC000FF57394044F48077394382830184F0BD53
:102CD000028B4FF2FF331A400283028B4FF6FF73D1
:102CE00003EA01231A4302837047F0B50C461546E8
:102CF000002200210026078C4FF6EF7C07EA0C0724
:102D00000784028B018C4FF6FF7707EA041640F622
:102D1000FF473A404FF6FF7707EA03373A434FF64B
:102D2000FF7707EA05273A438F4FB8420ED08F4FFF
:102D3000B8420BD0B0F1804F08D08D4FB84205D0CB
:102D40008C4FB84202D08C4FB84206D14FF6DF7795
:102D5000394046F01007394305E04FF65F773940B8
:102D600044F01007394302830184F0BD028B4FF613
:102D7000F3731A400283028B0A4302837047F0B553
:102D80000C46154600220021068C4FF6FE773E4089
:102D90000684028B018C4FF60C7632407E1C06EACC
:102DA00003162E433243704EB0420ED06F4EB042E7
:102DB0000BD0B0F1804F08D06D4EB04205D06D4EB3
:102DC000B04202D06C4EB04206D14FF6FD76314093
:102DD00044F00106314305E04FF6F576314044F00A
:102DE0000106314302830184F0BD70B505460C46EF
:102DF0005D4885420ED05D4885420BD0B5F1804FCD
:102E000008D05B48854205D05A48854202D05A48CE
:102E1000854200D100E000BF208850B92389A288F4
:102E200061882846FFF7ABFFE1882846FFF79EFF41
:102E300025E0208804280AD12389A28861882846B1
:102E4000FFF753FFE1882846FFF742FF17E020888D
:102E500008280AD12389A28861882846FFF7FBFE4B
:102E6000E1882846FFF7EEFE09E02389A288618801
:102E70002846FFF7A6FEE1882846FFF795FE70BDBD
:102E80002DE9F04105460C4600260127608808B967
:102E9000022600E00026A088012801D1022700E0D8
:102EA00001272088A0B92389A28861882846FFF7D6
:102EB00066FFE1882846FFF759FF23893A463146E5
:102EC0002846FFF712FFE1882846FFF701FF13E0CD
:102ED0002389A28861882846FFF707FFE1882846F2
:102EE000FFF7F6FE23893A4631462846FFF747FFAB
:102EF000E1882846FFF73AFFBDE8F0810A884B8851
:102F00001A438B881A43CB881A430B891A434B897F
:102F10001A438B891A43A0F8442070474FF6FF717B
:102F2000818000210180C1804180017270470021B1
:102F3000018041808180C180018141818181C18185
:102F40007047002101804180012181800021C180E2
:102F5000018170470021018041808180C180018111
:102F60004181818170470000002C01400034014004
:102F70000004004000080040000C004021B102881D
:102F800042F00102028004E002884FF6FE731A400C
:102F90000280704731B1B0F8442042F40042A0F8FA
:102FA000442005E0B0F84420C2F30E02A0F844200B
:102FB00070471AB183890B43838102E083898B4375
:102FC000838170478182704741EA0203A0F848304C
:102FD00070471AB183890B43838102E083898B4355
:102FE0008381704701894FF6F87211400181704763
:102FF0000A46002101894FF68F7319401143018160
:10300000704730B504460D4629462046FFF7F0FFCD
:10301000208940F00700208130BD2DE9F0410446B1
:103020000D4616461F46602D06D13B46012231460D
:103030002046FFF75AFE05E03B4601223146204676
:10304000FFF79DFE29462046FFF7D2FF208940F07A
:1030500007002081BDE8F08130B50C4600210189D0
:10306000C9B24FF6FF7505EA0325154325432943E9
:10307000018130BD2DE9F04105460E4617469846C0
:10308000002443463A4631462846FFF7E5FF2C899F
:103090004FF6F870044044F007044FF68F70044078
:1030A00044F070042C81BDE8F081F0B504460D4673
:1030B00016461F463B46324629462046FFF7CCFFC0
:1030C000208940F480402081F0BD018582827047D4
:1030D0000A46002101884FF68F7319401143018081
:1030E0007047F0B50C4615461E460021002200230D
:1030F0000189028B038C4FF6F877394021434FF654
:10310000FC473A4040F201173A434FF6DD773B4027
:103110004FF6FF7707EA06172F433B4301810283EF
:103120000384F0BD0A460021018B4FF68F731940CE
:103130001143018370470A460021018B48F6FF7353
:1031400019404FF6FF7303EA0223194301837047C6
:103150000A460021818B4FF68F73194011438183FA
:1031600070470A460021818B48F6FF7319404FF6DD
:10317000FF7303EA022319438183704721B1028858
:1031800042F08002028004E002884FF67F731A400A
:103190000280704721B1828842F00402828004E0FC
:1031A00082884FF6FB731A408280704721B1828873
:1031B00042F00802828004E082884FF6F7731A40DA
:1031C0008280704721B1828842F00102828004E04F
:1031D00082884FF6FE731A40828070470A460021AB
:1031E000018B4FF6F77319401143018370470A466C
:1031F0000021018B4FF2FF7319404FF6FF7303EA72
:1032000002231943018370470A460021818B4FF640
:10321000F77319401143818370470A460021818B5F
:103220004FF2FF7319404FF6FF7303EA022319436D
:10323000818370470A460021018B4FF6FB731940CA
:103240001143018370470A460021018B4FF6FF337B
:1032500019404FF6FF7303EA0223194301837047B5
:103260000A460021818B4FF6FB731940114381837D
:1032700070470A460021818B4FF6FF3319404FF605
:10328000FF7303EA02231943818370470A46002132
:10329000018B4FF67F7319401143018370470A4633
:1032A0000021018BC1F30E014FF6FF7303EA0223E5
:1032B0001943018370470A460021818B4FF67F73C3
:1032C00019401143818370470A460021818BC1F365
:1032D0000E014FF6FF7303EA0223194381837047FF
:1032E0000A460021018C4FF6FD73194011430184F9
:1032F00070470A460021018C4FF6F77319401143BD
:10330000018470470A460021018C4FF6DF73194093
:103310004FF6FF7303EA02131943018470470A460C
:103320000021018C4FF67F7319404FF6FF7303EABB
:1033300002131943018470470A460021018C4FF69D
:10334000FF5319404FF6FF7303EA02231943018428
:1033500070470A460021018C4FF2FF7319404FF667
:10336000FF7303EA02231943018470470A460021D0
:10337000018C4DF6FF7319404FF6FF7303EA0233D9
:1033800019430184704730B5002301248C40A3B257
:10339000048C9C430484048C02FA01F5ADB22C43E6
:1033A000048430BD30B5002304248C40A3B2048CC7
:1033B0009C430484048C02FA01F5ADB22C430484CE
:1033C00030BD70B503460020002418461830012592
:1033D0008D40ACB21D8CA5431D8409B1082909D1CB
:1033E00000EB6100056825F0700505600568154370
:1033F00005600EE00D1FC5F34E052844056825F451
:10340000E045056005684FF6FF7606EA022635437B
:10341000056070BD21B1028842F00202028004E022
:1034200002884FF6FD731A400280704721B102886E
:1034300042F00402028004E002884FF6FB731A4057
:103440000280704721B1828842F08002828004E0CD
:1034500082884FF67F731A408280704702884FF649
:10346000F7731A40028002880A43028070478288FC
:103470004FF68F731A40828082880A438280704799
:1034800002894FF6F8731A40028102890A430281C9
:10349000704702894FF67F731A40028102890A43FE
:1034A00002817047818470478185704781867047AB
:1034B0000187704781877047A0F8401070470288E5
:1034C0004FF6FF431A40028002880A430280704789
:1034D0000146888E70470146088F70470146888FE5
:1034E00070470146B1F8400070470146888C70472C
:1034F0000146088D704702460020138A0B400BB12D
:10350000012000E000207047CA430282704730B5B6
:103510000246002000230024158A05EA010395894C
:1035200005EA010413B10CB1012000E0002030BD18
:10353000CA430282704770477047704770477047B0
:1035400000487047EC0500207546FFF7F9FFAE46CE
:1035500005006946534620F00700854618B020B59F
:10356000FEF7D6F8BDE820404FF000064FF0000708
:103570004FF000084FF0000B21F00701AC46ACE81B
:10358000C009ACE8C009ACE8C009ACE8C0098D4688
:1035900070470446AFF300802046FCF730FE490038
:1035A00050EAC12018BF04204A0D18BF40F00100A6
:1035B00040F2FF72B2EB515F08BF40F002000128F9
:1035C00008BF052070472DE9F0414F1E00EBC701F1
:1035D0000446D1E9000115461E4637F006020DD01B
:1035E0002A46334600F074FC7F1E04EBC703D3E980
:1035F000002300F04DFA37F00602F1D1022F25D05A
:10360000042F13D0062F18BFBDE8F0812A46334699
:1036100000F05EFCD4E90A2300F03AFA2A46334669
:1036200000F056FCD4E9082300F032FA2A4633466B
:1036300000F04EFCD4E9062300F02AFA2A4633466D
:1036400000F046FCD4E9042300F022FA2A4633466F
:1036500000F03EFCD4E9022300F01AFA2A46334671
:1036600000F036FCD4E90023BDE8F04100F010BAC8
:10367000012200F067BF00F00BBA0000024A0020F0
:10368000110700F05FBF000001FDFFFF2DE9F84FBB
:1036900004460D4621F0004000917349814211DC3F
:1036A0007249884201DC06D12CB120462946BDE88A
:1036B000F84FFFF7DDBF6E48002DCCBF6D496E4956
:1036C000BDE8F88F6D49814211DD6D498142D8BF57
:1036D0004FF0FF366DDD20462946FFF760FF0428D6
:1036E00008BFFFF7CBFF20462946BDE8F88F6549A4
:1036F000654F25F00045814233DD6449814219DD83
:10370000002632464FF080432046294600F0C0F99B
:1037100080468A4601222046294600F013FF0022F7
:103720003B4600F0DFFC4246534600F061FA044697
:103730000D463EE001260022BA463B462046294679
:1037400000F0A6F980460F4600225346204629463F
:1037500000F0C8FC42463B4600F04AFA04460D46DB
:1037600027E04B4981421BDDDFF828A10226002219
:1037700053462046294600F0ABFB00223B4600F0B2
:1037800087F980460F46002253462046294600F01E
:10379000A9FC42463B4600F02BFA04460D4608E0E1
:1037A000032622462B4600203B4900F021FA04461E
:1037B0000D4622462B461046194600F089FB8B46E3
:1037C000824602460B4600F083FB0746024633481A
:1037D00088460B4606217844FFF7F5FE52465B46C5
:1037E00000F076FB82462E488B463A46434605213A
:1037F0007844FFF7E8FE3A46434600F069FB02468C
:103800000B46002E504659460CDA00F041F922468C
:103810002B4600F05DFB01B022462B46BDE8F04F81
:1038200000F054BC00F034F922462B4600F050FB67
:103830001C4A7A4402EBC603D3E9002300F052FC91
:1038400022462B4600F04EFC174A7A4402EBC60390
:10385000D3E9002300F03AFC009A002AB8BF81F0B7
:103860000041BDE8F88F0000000010440000F07F28
:10387000182D4454FB21F93FFB21F9BF0000DC3F28
:103880000000203E0000F33F0000F03F0000E63F54
:10389000008003400000F83F0000F0BF76160000F3
:1038A00034160000D21500009A1500002DE9F04DE5
:1038B0009446CCF1000423F000464CEA0404524F35
:1038C00046EAD4749A46884621F00042BC4206D8A3
:1038D000454240EA050442EAD474BC4204D9BDE83A
:1038E000F04D6246FFF7C7BEAAF14055A5F17F65CE
:1038F00055EA0C040BD0022404EAAA74434DDFF805
:1039000010E144EAD87452EA000B04D00CE0BDE8A0
:10391000F04DFFF7BBBE002C14BF012CBDE8F08DAD
:10392000022C30D0032C32D056EA0C0B0AD0BE4207
:1039300020D1BA4209D126F0804622F08042334697
:10394000114617E000291ADB25E0DFF8C8B0FB4478
:10395000002C04BFDBE90001BDE8F08D012C02BFA3
:10396000DBE9000181F00041BDE8F08D022C0AD0B6
:10397000032C0CD0BA4212D1B8F1000F0BDA234855
:103980002549BDE8F08D28462449BDE8F08D28463C
:103990007146BDE8F08D1D482149BDE8F08D921BB0
:1039A00012153C2AC4BF19481D490EDCBAF1000F9C
:1039B000BEBF12F13C0F0020014606DB624600F05C
:1039C00017F921F00041FFF761FE002C08BFBDE8A8
:1039D000F08D012C04BF81F00041BDE8F08D114A4B
:1039E000114B022C07D000F07DFB2A46BDE8F04DBC
:1039F0000A4B00F077BB00F075FB2A46BDE8F04D9E
:103A0000064B00F063BB00000000F07F182D44540B
:103A1000FB2109C02E150000FB21F9BFFB21094045
:103A2000FB21F93F075C143326A6A13C21F000429C
:103A3000A2F16052B2F5801F01F0004328BFD2F11D
:103A40007F6C0BD95FEA001C43EAC20242EB507064
:103A500018BF704728BF20F001007047B2F5801FE3
:103A6000BCBF184670474FEA410C1CF5001F02D23C
:103A7000084600F030BD70B500F0D4FA00000089AF
:103A8000FFF7F6BF4FF00040A0F580007047000040
:103A900010B591EA030F48BF83F0004300F12A8379
:103AA000841A71EB030C05D2121943EB0C03001BB3
:103AB00061EB0C01DFF824E14FEA1154A4EB135C35
:103AC0001EEA430F18BF9EEA445F73D023EA0E0339
:103AD000DCF1200E21EA045143F4801332D322FAA0
:103AE0000CFE10EB0E0023FA0CFE41EB0E01CCF1A4
:103AF000200E03FA0EFE10EB0E0051F10001B1F59D
:103B0000801FCCF1200E32D201EB045112FA0EF2DA
:103B1000BDE8104058BF7047401C38BF5FEA420202
:103B200018BF7047002814BF20F0010041F10001C8
:103B30004FEA410313F5001F38BF7047A1F1C041A0
:103B400000F0BEBA012A43EB0302ACF1200CDCF119
:103B50001F0E32BF4FF0000E23FA0CF310EB0300E0
:103B600041EB0451B4EB115FD0D0A1EB045101F54E
:103B7000801149085FEA300001EB04510ED350F187
:103B8000000038BF12FA0EFE08D1BDE81040C9E7A8
:103B9000401C38BF5FEA4202CAD1C3E7BDE810400B
:103BA0004FEA410313F5001F38BF7047A1F1C04130
:103BB00000F086BA9EEA445F08D011EA5E0FBDE8C5
:103BC000104004BF01F0004100207047BDE81040E4
:103BD00070B500F027FA00BF64FBBE3E0000E0FFB6
:103BE00002494FF0000000F07BBC00BF0000F87FEE
:103BF0002DE9C04130B4DFF8A0C23CEA111418BF6F
:103C00003CEA131400F0EC8081EA03051CEA11146D
:103C100044EAD57418BF1CEA131500F0C780A4EB62
:103C200005044FF0004545EAC12145EAC32341EAB6
:103C3000505143EA525304F17F74994204F5003421
:103C40004FEAC0204FEAC22208BF904200F09C8099
:103C50004FEA13650FF24016765D4FEA134506FBF7
:103C600005F7C7F1807706FB07F74FEAD737A7FBC1
:103C700003687642C8F58038A7FB06CE38BFA8F1A6
:103C8000010807FB08E64FF0000EA6FB028CE6FBDE
:103C900003CEDCF1000CCEF1004E38BFAEF1010EC8
:103CA000A6FB0C584FF000074FF00005E6FB0E870F
:103CB000A1FB08C6A0FB07CE16EB0E0645F10005DA
:103CC000E1FB076515F1E04E7EBFA4F580345FEAA5
:103CD00046066D4116F1800745F100054FEA1727AA
:103CE0004FEA066647EA0567A6F1DE46B6F1805F51
:103CF0004FEA15251FD9384624F0010C05EBC47195
:103D0000BCF1FE6F01EB0C1102D8F0BCBDE80081E4
:103D100024425CBF01F5801E9EEAC47F02D4F0BC41
:103D2000BDE80081244238D4F0BCA1F1C041BDE817
:103D3000004100F0C5B94FEAD22242EA43524FEAAD
:103D4000D323A7FB02864FEAD02040EA415007FB6D
:103D500003661EEA0E0F4FEAD12105FB026658BF2B
:103D6000A6EB0056B6EB00564FEA520E4EEAC37E63
:103D700018EB0E0E56EB530EBDD518EB02085E4144
:103D80007F1C55F10005B6E74FF480154FF0000792
:103D90004FF000064FF00008ADE7F0BC4FF0000018
:103DA00001F1C04101F00041BDE8008111EA0C1FA2
:103DB0000CEA131500D00CE013EA0C1F00F025806C
:103DC0004FF00000F0BC81EA030101F00041BDE8C2
:103DD0000081F0BCBDE8004181EA030100F070B948
:103DE000F0BCBDE8004170B500F01CF9097EFC3E56
:103DF00000F007B881EA03014FF0000001F0004134
:103E0000704781EA030100F05BB9F0BCBDE80041F6
:103E10004FF0000021497047FFFDFBF9F7F5F4F280
:103E2000F0EEEDEBE9E8E6E4E3E1E0DEDDDBDAD855
:103E3000D7D5D4D3D1D0CFCDCCCBCAC8C7C6C5C4B3
:103E4000C2C1C0BFBEBDBCBBBAB9B8B7B6B5B4B3CA
:103E5000B2B1B0AFAEADACABAAA9A8A8A7A6A5A4B5
:103E6000A3A3A2A1A09F9F9E9D9C9C9B9A99999879
:103E70009797969595949393929191908F8F8E8E1C
:103E80008D8C8C8B8B8A89898888878786858584A9
:103E900084838382828181800000FF070000F87F95
:103EA00010F0004248BF4042B0FA80F310FA03F12C
:103EB0000AD0C3F11D0303F580634FEA415002EBC2
:103EC000035202EBD12170474FF000007047000011
:103ED000DFF848C170B51CEA111E1EBF1CEA13159D
:103EE0009EEA0C0F95EA0C0F00F06F8081EA030444
:103EF00023EA4C134EEAD47E21EA4C1141F480119E
:103F000043F48013AE44A1FB024CA0FB0365AEF169
:103F10007F7E361955EB0C05A1FB034C4CF10003D9
:103F2000A0FB021C16EB0C06654153F1000309428D
:103F300018BF46F0010613F4007F0BD14FEA03319E
:103F40004FEA0530340341EA155140EA16506FF04C
:103F500003020AE04FEAC3214FEAC520F40241EA16
:103F6000555140EA56506FF0020202EB2E4201EB2F
:103F7000025585EACE710AD05FEA440C18BF24F0DE
:103F8000004450F1000041F1000120EAD47040F2F9
:103F9000FE7C624500D270BDA84214BF4FF0804441
:103FA0004FF04044002E08BF0024BEF1806FA8BF30
:103FB000A1F1C041BDE8704080F282804FF0000066
:103FC00001F1C04101F0004170479EEA0C0F0CEA7C
:103FD000131518BF95EA0C0F06D04FF0000081EAC8
:103FE000030E0EF0004170BD00F01CF88900013E88
:103FF00000F007B800F009B84FEA430C5FEA5C5CD8
:1040000008D081EA030100F05BB84FEA410C5FEA97
:104010005C5CF6D14FF00000014970470000FF07DB
:104020000000F87F0EF1020E2EF0030E5EF8046B16
:10403000364205D4012A43EB030515F5001F12D8BB
:10404000012841EB010C1CF5001F0CD80ED14FEAE2
:10405000D17C15F5001F0CEB4C0C0CF1020C08BFC9
:104060004CEBD37C04E04FF0080C01E04FEAD37C2A
:104070000CEB4C0526FA05F606F00706B6F1040C23
:1040800006D20EEB860CBDE870404CF0010C604788
:10409000DFE80CF0090B02024FF000414FF0000086
:1040A000A1F5002170BD19461046012851EB01040D
:1040B00018BFD4F5001484BF002001F0004170BD8A
:1040C0000808A0F500114FEA3101704791EA030F8B
:1040D00010B581F000413FF5E3AC83F0004300F000
:1040E00009B8000010B591EA030F48BF83F0004300
:1040F0003FF5D6AC841A71EB030C07D212198CF081
:10410000004C43EB0C03001B61EB0C01DFF8A4E156
:104110004FEA1154A4EB135C1EEA430F18BF9EEA4A
:10412000445F00F0B08023EA6E03524221EA04515A
:10413000C3EB6E0338BF5B1EDCF1200E25D322FAE1
:104140000CFE10EB0E0043FA0CFE41EB0E01CCF11D
:10415000200E03FA0EFE10EB0E0051F10001CCF11F
:10416000200E29D412FA0EF201EB0451BDE81040E2
:1041700058BF7047401C1CBFB2F1004F7047002869
:104180000CBF491C20F00100704712EB020E43EBFC
:10419000030218BF4FF0010E4EEA4202ACF1200CB0
:1041A000DCF11E0E54D943FA0CFE10EB0E0051F157
:1041B000FF31CCF11E0ED5D50EF1010E12FA0EFE16
:1041C000404141EB010101EB445C5FEA5C5C10D9CA
:1041D00010EBDE7001EB045138BFBEF1004FBDE8BB
:1041E000104018BF704700280CBF491C20F0010088
:1041F000704730D24FEAD42C11F5001124F400643A
:104200001BD0B1FA81F20B3AA41AA41ED2F12003FA
:10421000914030FA03F31943904001EBCC71002C2C
:1042200001EB0451BDE81040A8BF704701F1C04147
:104230004FF0000001F000417047B0FA80F310FA2F
:1042400003F100D110BDE41A173C4805C90AE4E7A0
:1042500001EB045110BD491001EB0451BDE81040C1
:104260004FEA300002E04FF0000170474A0008BFFB
:104270000042F8D0B2F5001F28BF704701F000419E
:104280004FF0000070479EEA445F07D011EA5E0FCE
:10429000BDE8104004BF002100207047BDE8104079
:1042A00070B5FFF7BFFE00BF40DFF63E83F0004170
:1042B000104670470000E0FF43004FEAD30C4FEA7E
:1042C0003C0C43401FBF40070CF1605113F0FE4F00
:1042D00070471CF0006F03D100200CF000417047C4
:1042E0000CF0004343EA507010B540EACC0000F0F7
:1042F000ACF800BF000000924FEA0001FFF7E0BEFB
:104300004FF000414FF00000A1F500217047000080
:1043100041000B0ED3F19E0208D950F400034FEA7E
:10432000032323FA02F048BF4042704710B500F063
:104330008CF800BF49922480002070476FF0004243
:1043400082EA2000704700004FF47F0C1CEAD01274
:104350001EBF1CEAD11392EA0C0F93EA0C0F00F077
:10436000478090EA010F48BF42F480724FF0004C42
:104370004CEA00204CEA012102EB0302A0FB0113EE
:10438000A2F50002002918BF43F001035B0028BF1B
:104390004FEA330342EB22425FEA132C4CEBC2504C
:1043A0002EBFBCEB436FB2F57C0F70474FEA036C36
:1043B000BCF1004F08BF20F00100B2F57C0F38BF00
:1043C00070470BD582F0FF0212F5803FC8BF7047DF
:1043D00000F1C040D8BF00F00040704700F5000C6D
:1043E0005FEA4C0C48BF7047B0F1C04000F073B8B2
:1043F00090EA010F0CEAD11348BF42F48072624583
:1044000038BF634504D280EA010000F000407047E5
:1044100010B500F01AF800BF8900013E00F007B89F
:1044200000F009B85FEA410C5FEA1C6C08D080EA32
:10443000010000F050B85FEA400C5FEA1C6CF6D156
:104440004FF00040A0F5800070470EF1020E2EF0F4
:10445000030E5EF8044B244204D44FEA4102B2F149
:104460007F4F11D84FEA4003B3F17F4F0CD80ED1E4
:104470004FEAD07CB2F17F4F0CEB4C0C0CF1020CEC
:1044800008BF4CEBD17C04E04FF0080C01E04FEA90
:10449000D17C0CEB4C0324FA03F404F00704B4F1D0
:1044A000040C06D20EEB840CBDE810404CF0010C5D
:1044B0006047DFE80CF0070802024FF00040A0F56B
:1044C000800010BD0846420018BFD2F1807288BF3C
:1044D00000F0004010BDFF2141EAD050C0057047F8
:1044E0000CF00F03092B08BF082000F059800A2B9D
:1044F0000BD0082B18BF704708BF1CF0400F0AD024
:104500004FF000004FF0000170471CF0400F18BF43
:104510004FF0004070471CF0100F08D020F070439F
:1045200000F07F4242EAD3014FEA4370704700F047
:10453000604021F07F4242EA000201F07F4040EA01
:10454000727070474FF0FF0C4CF4E06C1CEA115392
:104550001CBF9CEA030C9445C2BFDA4201EB025136
:104560007047002B0DD0BCF1000F0FD0002A01F0D6
:104570000041A4BF41F0E04141F07F614FF00000F5
:10458000704701F000414FF00000704750EA0133DE
:104590004FF09B0C18BF4CF0806C7FF421AB704740
:1045A0001CF4801F11D01CF4E02F03D06FEACC3133
:1045B000490070474FF04050EFF3008222F0704204
:1045C00042EA000282F3008870474FF00000704713
:1045D0000000000000000000002F000000000700A5
:1045E000070000147F147F1400242A7F2A1200621F
:1045F00064081323003649552250000005030000CB
:1046000000001C224100000041221C000014083E52
:1046100008140008083E0808000000A06000000818
:10462000080808080000606000000020100804026C
:10463000003E5149453E0000427F4000004261512A
:104640004946002141454B31001814127F100027C4
:1046500045454539003C4A49493000017109050387
:1046600000364949493600064949291E00003636B8
:10467000000000005636000000081422410000141B
:1046800014141414000041221408000201510906F8
:1046900000324959513E007C1211127C007F494979
:1046A0004936003E41414122007F4141221C007FAA
:1046B00049494941007F09090901003E4149497AB8
:1046C000007F0808087F0000417F41000020404132
:1046D0003F01007F08142241007F40404040007F9E
:1046E000020C027F007F0408107F003E4141413EE2
:1046F000007F09090906003E4151215E007F09192A
:1047000029460046494949310001017F0101003F26
:104710004040403F001F2040201F003F4038403FA6
:10472000006314081463000708700807006151490A
:10473000454300007F41410000552A552A5500009D
:1047400041417F000004020102040040404040401B
:10475000000001020400002054545478007F4844B3
:10476000443800384444442000384444487F0038EA
:104770005454541800087E0901020018A4A4A47C13
:10478000007F080404780000447D400000408084DD
:104790007D00007F102844000000417F4000007C25
:1047A00004180478007C0804047800384444443831
:1047B00000FC242424180018242418FC007C08047D
:1047C000040800485454542000043F444020003C56
:1047D0004040207C001C2040201C003C4030403CDD
:1047E000004428102844001CA0A0A07C004464546D
:1047F0004C441414141414140000000000000000B1
:104800000000000000000000000000F800000000B0
:10481000000000333000000000100C06100C0600F1
:10482000000000000000000040C07840C078400058
:10483000043F04043F040400007088FC08300000BA
:10484000001820FF211E0000F008F000E018000012
:1048500000211C031E211E0000F0088870000000CB
:104860001E2123241927211010160E00000000001D
:104870000000000000000000000000E0180402003A
:10488000000000071820400000020418E0000000AB
:104890000040201807000000404080F080404000A9
:1048A0000202010F01020200000000F000000000FF
:1048B0000101011F010101000000000000000000D3
:1048C00080B0700000000000000000000000000048
:1048D00000010101010101010000000000000000D1
:1048E000003030000000000000000000806018046C
:1048F000006018060100000000E010080810E00049
:10490000000F102020100F00001010F80000000011
:104910000020203F20200000007008080888700058
:1049200000302824222130000030088888483000D8
:104930000018202020110E000000C02010F80000F8
:1049400000070424243F240000F808888808080091
:104950000019212020110E0000E0108888180000A6
:10496000000F112020110E0000380808C838080078
:104970000000003F000000000070880808887000F8
:10498000001C222121221C0000E010080810E00079
:104990000000312222110F00000000C0C000000002
:1049A0000000003030000000000000800000000027
:1049B000000080600000000000008040201008001F
:1049C00000010204081020004040404040404000E8
:1049D00004040404040404000008102040800000C3
:1049E0000020100804020100007048080808F000C8
:1049F0000000003036010000C030C828E810E00098
:104A00000718272423140B000000C038E000000022
:104A1000203C23020227382008F88888887000008C
:104A2000203F202020110E00C03008080808380060
:104A3000071820202010080008F808080810E000D7
:104A4000203F202020100F0008F88888E808100078
:104A5000203F20202320180008F88888E80810004C
:104A6000203F200003000000C03008080838000084
:104A700007182020221E020008F808000008F80885
:104A8000203F210101213F20000808F8080800000C
:104A90000020203F2020000000000808F80808003F
:104AA000C08080807F00000008F888C028180800B7
:104AB000203F20012638200008F8080000000000F0
:104AC000203F20202020300008F8F800F8F80800E7
:104AD000203F003F003F200008F830C00008F808E1
:104AE000203F200007183F00E01008080810E000F1
:104AF0000F10202020100F0008F808080808F00008
:104B0000203F210101010000E01008080810E0002A
:104B10000F18242438504F0008F8888888887000BF
:104B2000203F2000030C302000708808080838005F
:104B30000038202121221C00180808F80808180055
:104B40000000203F2000000008F808000008F808D6
:104B5000001F202020201F000878880000C8380887
:104B6000000007380E010000F80800F80008F800FF
:104B7000033C0700073C0300081868808068180899
:104B800020302C03032C30200838C800C838080017
:104B90000000203F2000000010080808C838080066
:104BA0002038262120201800000000FE020202000A
:104BB0000000007F40404000000C30C000000000BA
:104BC000000000010638C00000020202FE000000E2
:104BD000004040407F000000000004020202040088
:104BE00000000000000000000000000000000000C5
:104BF00080808080808080800002020400000000AD
:104C000000000000000000000000808080800000A4
:104C10000019242222223F2008F800808000000092
:104C2000003F112020110E00000000808080000055
:104C3000000E112020201100000000808088F80064
:104C4000000E112020103F20000080808080000096
:104C5000001F222222221300008080F088888818FA
:104C60000020203F20200000000080808080800005
:104C7000006B94949493600008F80080808000009A
:104C8000203F210000203F20008098980000000075
:104C90000020203F202000000000008098980000A5
:104CA00000C08080807F000008F8000080808000C5
:104CB000203F24022D302000000808F800000000EA
:104CC0000020203F202000008080808080808000A5
:104CD000203F20003F20003F808000808080000037
:104CE000203F210000203F200000808080800000C5
:104CF000001F202020201F008080008080000000F6
:104D000080FFA12020110E00000000808080800024
:104D1000000E112020A0FF80808080008080800015
:104D200020203F2120000100000080808080800042
:104D30000033242424241900008080E080800000B7
:104D40000000001F20200000808000000080800004
:104D5000001F202020103F20808080000080808065
:104D600000010E30080601008080008000808080F5
:104D70000F300C030C300F0000808000808080001A
:104D80000020312E0E312000808080000080808045
:104D900080818E70180601000080808080808000F5
:104DA0000021302C2221300000000000807C020213
:104DB00000000000003F404000000000FF00000035
:104DC00000000000FF0000000002027C80000000E4
:104DD0000040403F00000000000601010202040400
:104DE00000000000000000004FBB610567ACDD3F24
:104DF000182D4454FB21E93F9BF681D20B73EF3F02
:104E0000182D4454FB21F93FE2652F227F2B7A3C79
:104E1000075C143326A6813CBDCBF07A8807703C32
:104E2000075C143326A6913CC4EB98999999C9BFA5
:104E3000711623FEC671BCBF6D9A74AFF2B0B3BFDA
:104E40009AFDDE522DDEADBF2F6C6A2C44B4A2BF9A
:104E50000D5555555555D53FFF8300922449C23F06
:104E60006E204CC5CD45B73F513DD0A0660DB13F3A
:104E7000EB0D76244B7BA93F11DA22E33AAD903F4C
:104E80000000000000000000A84E00080000002004
:104E9000240500006C01000874500008240500205F
:104EA0002C070000C8010008015184A24A0410091F
:104EB0000102030406070809200F0202FAFAAAAA4F
:104EC000FFFFAAAAFAFA0202100F4272723A7A425D
:104ED0004B5B5262621377661016203C1CFFFFB0DA
:104EE000B424243F3FE4E4242420020203FFFF30E3
:104EF0000B01051D59C1FF7F010101500CF8F84855
:104F00004C4F4B4A4848F8F84CFFFF44011929110F
:104F10002C202424381009243010FFFF10F0F0104A
:104F200010081C1F0B0C0D4F6E341C0F23607F3FAD
:104F3000180880C060F8FF07023546E0703C1C0886
:104F4000200D7F7F0406033F7F4040407878100AA1
:104F500003050911FF118905C312E012F04962210E
:104F6000073D4428FF11AA44700B83013844829204
:104F7000927401831E7C44C7017D01990519C141CA
:104F80009A01028139FB013C69419949FA0101A169
:104F90002A4001212A6D01212A6001791501642A24
:104FA000DB010915072ADA01212AD801212AC001CB
:104FB0000915072A800101352A06010918071CE690
:104FC0006620076A86157A861C2A8601180A808060
:104FD0008686068686C0C00C0E1C0606D030764D2E
:104FE0002907013113601C12FE1301021009C418B5
:104FF00020029E63B20E1DFF8181FFF24440300FFC
:1050000012FF180923EAAABFAAEA033F0B012DBC2D
:10501000808080080115240E0C082A010131490402
:105020001D81808081021901B91706110101090C47
:105030000E0A14C0012178081E21404050215E084C
:10504000012A4DFFFFC1C10409232DE81580FCF39F
:10505000EFF3FC80FF80EEEEEEF5FBFF9CBEB6B6F4
:10506000883A2D01020304041808060708090204FF
:0450700006F3000043
:0400000508000131BD
:00000001FF
