:020000040800F2
:1000000088070020C50F0008190200081B0200081D
:100010001F02000823020008270200080000000059
:100020000000000000000000000000002B0200089B
:100030002D020008000000002F0200083102000815
:1000400047090008DF0F0008DF0F0008DF0F000876
:10005000DF0F0008DF0F0008DF0F0008DF0F0008C8
:10006000DF0F0008DF0F0008DF0F0008DF0F0008B8
:10007000DF0F0008DF0F0008DF0F0008DF0F0008A8
:10008000DF0F0008DF0F0008DF0F0008DF0F000898
:10009000DF0F0008DF0F0008DF0F0008DF0F000888
:1000A000DF0F0008DF0F0008DF0F0008DF0F000878
:1000B000DF0F0008830C0008DF0F0008DF0F0008C7
:1000C000DF0F0008DF0F0008DF0F0008DF0F000858
:1000D000DF0F00083B0F0008DF0F0008DF0F0008EC
:1000E000DF0F0008DF0F0008DF0F0008DF0F000838
:1000F000DF0F0008DF0F0008DF0F0008DF0F000828
:10010000DF0F0008DF0F0008DF0F0008DF0F000817
:10011000DF0F0008DF0F0008DF0F0008DF0F000807
:10012000DF0F0008DF0F0008DF0F0008DF0F0008F7
:1001300000F002F800F03AF80AA090E8000C8244BF
:100140008344AAF10107DA4501D100F02FF8AFF29C
:10015000090EBAE80F0013F0010F18BFFB1A43F0A5
:1001600001031847003A0000203A0000103A24BF6B
:1001700078C878C1FAD8520724BF30C830C144BF0C
:1001800004680C607047000000230024002500264E
:10019000103A28BF78C1FBD8520728BF30C148BFEA
:1001A0000B6070471FB51FBD10B510BD02F08AFF70
:1001B0001146FFF7F7FF00F009F802F0BCFF03B4A7
:1001C000FFF7F2FF03BC00F05DFE000000F0F0FD61
:1001D00000F0DFFA00F025FB4FF4A06001F096FC80
:1001E00000F018F941F61F41312000F01DFD4FF4D9
:1001F000165000F056FE00F05FF90A2000F093FB65
:1002000000F0B2FB02A002F01FFF00BFFEE70000FB
:10021000BFAACABC00000000704700BFFEE700BFD5
:10022000FEE700BFFEE700BFFEE77047704770477C
:10023000704700000CB50020019000906C480068E9
:1002400040F480306A49086000BF6948006800F4E3
:10025000003000900198401C0190009818B9019856
:10026000B0F5A06FF1D16248006800F4003010B121
:100270000120009001E0002000900098012843D167
:100280005C48006840F010005A4908600846006861
:1002900020F0030008600846006840F00200086093
:1002A00053484068524948600846406848600846DC
:1002B000406840F4806048600846406820F47C1044
:1002C00048600846406840F4E81048600846006806
:1002D00040F08070086000BF4548006800F0007082
:1002E0000028F9D04248406820F0030040494860A7
:1002F0000846406840F00200486000BF3C48406843
:1003000000F00C000828F9D10CBD10B5FFF792FFE2
:1003100010BD10B53648006840F00100344908604F
:10032000084640683449084031494860084600683A
:10033000324908402E4908600846006820F48020B1
:1003400008600846406820F4FE0048604FF41F0033
:100350008860FFF7DAFF4FF000602949086010BDA0
:1003600010B5002100200022214B5B6803F00C0136
:1003700021B1042906D0082928D107E0214B224CBD
:10038000236027E01F4B204C236023E0184B5B6861
:1003900003F47010164B5B6803F48032022303EB06
:1003A000904022B9194B4343174C23600DE0104B8A
:1003B0005B6803F4003323B1144B4343124C2360B6
:1003C00003E0104B4343104C236003E00D4B0E4CF5
:1003D000236000BF00BF064B5B68C3F303130C4CE4
:1003E000E15C094B1B68CB40074C236010BD00004B
:1003F00000100240002002400000FFF8FFFFF6FE60
:1004000008ED00E000127A000000002000093D0025
:100410000400002008B50121242001F00FF94FF459
:100420008070ADF8000010208DF8030003208DF8D7
:1004300002006946094800F045FE4FF48071074804
:1004400000F0EDFE0420ADF800006946044800F01D
:1004500039FE0421024800F0E2FE08BD0008014018
:1004600000140140002904DA4A4211B22D22027020
:1004700001E020220270642291FBF2F23032D3B20A
:10048000421C10461370642291FBF2F302FB13111D
:100490000A2291FBF2F23032D3B2421C10461370A2
:1004A0000A2291FBF2F302FB131101F13002D3B2E5
:1004B000421C10461370704708B54020ADF800008C
:1004C00003208DF8020014208DF803006946FE48D1
:1004D00000F0F8FD8020ADF8000003208DF8020048
:1004E00014208DF803006946F74800F0EBFD08BDC5
:1004F0001E2001E0411EC8B20028FBD1704741F226
:10050000883000E0401E0028FCD1704700B58020F4
:10051000ED491031086040200860FFF7E9FFEA4824
:100520000830006808B9012000E0002000F08000D9
:1005300008B1002000BD8020E34914310860FFF7B6
:10054000D7FFE1480830006800F0800008B10020C3
:10055000F0E78020DC4914310860FFF7C9FF012073
:10056000E8E700B54020D84914310860FFF7C0FF24
:100570008020D54914310860FFF7BAFF4020D249E6
:1005800010310860FFF7B4FF8020CF4910310860B8
:10059000FFF7AEFF00BD00B54020CB491431086025
:1005A000FFF7A6FF8020C84914310860FFF7A0FFBD
:1005B0004020C54910310860FFF79AFF4020C2492A
:1005C00014310860FFF794FF00BD00B54020BE491C
:1005D00014310860FFF78CFF8020BB4910310860A0
:1005E000FFF786FF4020B84910310860FFF780FF11
:1005F0004020B54914310860FFF77AFF00BD00B50F
:100600004020B14914310860FFF772FF8020AE49E5
:1006100010310860FFF76CFF4020AB4910310860D3
:10062000FFF766FFA8480830006800F0800038B186
:100630004020A54914310860FFF75AFF002000BD93
:100640004020A14914310860FFF752FF0120F6E76E
:1006500000B5024608231BE040209B491431086086
:10066000FFF746FF02F0800020B18020964910314C
:10067000086003E080209449143108605006020E9F
:10068000FFF736FF4020904910310860FFF730FF38
:100690001800A3F10101CBB2DED140208A49143108
:1006A000086000BD00B50823002280208649103173
:1006B000086015E05006020E40208349143108609E
:1006C000FFF716FF4020804910310860FFF710FF48
:1006D0007D480830006800F0800008B142F0010257
:1006E0001800A3F10101CBB2E4D1402076491431C6
:1006F0000860104600BD70B506460C461546FFF76B
:1007000005FF08B9002070BD3046FFF7A1FFFFF7D5
:1007100076FF18B9FFF725FF0020F4E72046FFF722
:1007200097FFFFF76CFF2846FFF792FFFFF767FF81
:10073000FFF717FFFFF7E3FE0120E4E770B504467B
:100740000D46FFF7E3FE08B9002070BD2046FFF715
:100750007FFFFFF754FF30B9FFF703FF01205B492C
:1007600008700020F1E72846FFF772FFFFF747FF08
:10077000FFF7CCFE611CC8B2FFF76AFFFFF73FFF2F
:10078000FFF790FF0646FFF720FFFFF7EAFE30462F
:10079000DBE710B500F0E4FD4FF4803000F000FE20
:1007A00000F03DFE4A49087008460078012826D12D
:1007B000002000F07AFE002000F089FE4FF48060F7
:1007C00000F07CFE022001F053FA102001F064FAE0
:1007D0004FF4E0114FF4803000F04AFE012000F0A9
:1007E00053FE00BF392000F0FEFD0028FAD00220A1
:1007F00000F04DFE00BF00F053FE0828FBD10121A0
:100800000C2000F01BFF0121302000F017FF012118
:10081000C02000F013FF012140F2011000F00EFF94
:1008200010BD08B501213C2000F008FF4FF4007016
:10083000ADF8000018208DF8030003208DF80200A9
:100840006946244800F03EFC4FF48060ADF800009B
:1008500004208DF8030069461E4800F033FC08BDF3
:1008600000B587B001214FF4904000F0E7FE002072
:10087000ADF80400ADF806004FF40070ADF80800C4
:100880000020ADF80A0001A9134800F0F3FF4FF46F
:10089000E13003900020ADF81000ADF81200ADF883
:1008A0001400ADF818000C20ADF8160003A90A4892
:1008B00000F06BFF40F22551074801F0DAF8012201
:1008C00040F22551044809E0000C014019000020C5
:1008D00018000020000801400038014000F0EDFF42
:1008E0000121CA4800F0DDFF07B000BD10B50121AD
:1008F000C80200F0B0FE4FF4C07001F080F9412052
:1009000001F086F9502001F09EF901F0A7F901F0FD
:1009100090F910BD01B502E00098401E00900098CB
:100920000028F9D108BD01B509E0002000E0401C15
:100930004CF250318842FAD30099491E0091009937
:100940000029F2D108BD10B5502001F076F901F070
:1009500085F910BD10B504462146AC4801F00EF8EB
:100960000120FFF7E0FF10BD00B500226B21D02071
:10097000FFF7C1FE07221921D020FFF7BCFE062297
:100980001A21D020FFF7B7FE18221B21D020FFF735
:10099000B2FE01221C21D020FFF7ADFE00BD00B544
:1009A0003C21D020FFF7CAFE994908703B21D02096
:1009B000FFF7C4FE9649487008460078497840EA37
:1009C000012000B2934908800846B0F90000A42134
:1009D00090FBF1F000B28F4908803E21D020FFF754
:1009E000ADFE8B4988703D21D020FFF7A7FE8849D6
:1009F000C87008468078C97840EA012000B286496C
:100A000008800846B0F90000A42190FBF1F000B284
:100A1000814908804021D020FFF790FE7C49087171
:100A20003F21D020FFF78AFE7949487108460079B6
:100A3000497940EA012000B2784908800846B0F9B7
:100A40000000A42190FBF1F000B27449088000BDC1
:100A50002DE9F0414421D020FFF770FE6C49087069
:100A60004321D020FFF76AFE6949487008460078A4
:100A7000497840EA012000B2664908800846B0F98A
:100A8000000002F0C4FD06464FF06632644B02F0EF
:100A900037FC044602F08CFD00B25E490880462116
:100AA000D020FFF74BFE5A4988704521D020FFF730
:100AB00045FE5749C87008468078C97840EA012049
:100AC00000B2554908800846B0F9000002F09FFDC9
:100AD00006464FF06632524B02F012FC044602F01A
:100AE00067FD00B24C4908804821D020FFF726FE60
:100AF000474908714721D020FFF720FE444948713B
:100B000008460079497940EA012000B2434908804B
:100B10000846B0F9000002F07AFD06464FF0663252
:100B20003F4B02F0EDFB044602F042FD00B23B49B0
:100B30000880BDE8F08100B502223721D020FFF700
:100B4000DAFD0A20FFF7EFFE01220A211820FFF745
:100B5000D2FD0A20FFF7E7FE03211820FFF7EEFD84
:100B60002B49087004211820FFF7E8FD2849487038
:100B700008460078497840EA012000B225490880FB
:100B800005211820FFF7DAFD214988700621182079
:100B9000FFF7D4FD1E49C87008468078C97840EA3E
:100BA000012000B21C49088007211820FFF7C6FD6C
:100BB0001749087108211820FFF7C0FD1449487132
:100BC00008460079497940EA012000B213490880BB
:100BD00000BD70B506460D463046FFF7BBFE284601
:100BE000FFF7B8FE3A20FFF7B5FE002405E00D49F7
:100BF000085DFFF7AFFE601CC4B2042CF7DB2020B9
:100C0000FFF7A8FE2020FFF7A5FE70BD00380140C9
:100C1000540000201A0000201C0000201E000020AC
:100C200066663040140000207FB505460C46012161
:100C3000022000F010FDADF80850ADF8044000208F
:100C4000ADF80A00ADF8060001A94C4801F0C2FB5E
:100C500001221146494801F034FF1D208DF80000A3
:100C600000208DF8010003208DF8020001208DF88E
:100C70000300684600F04FFF0121404801F006FFE5
:100C80007FBD2DE9F04F87B001213C4802F0C7F944
:100C9000002870D00121394802F0D2F9FFF77FFE19
:100CA0003748B0F9000002F0F9FE36490860FFF756
:100CB000CFFE3348B0F9000002F0F0FE3249086080
:100CC0000846006802F0A2FE8046304A304B02F02F
:100CD000B5FC04460D462F48006802F097FE064614
:100CE00022462B4602F064FA82462B4A2B4B02F036
:100CF000A5FCCDE902012348006802F087FE044606
:100D0000274A284B02F09AFCCDE90001DDE90223D5
:100D100002F04EFACDE9040102F018FA1D4908600C
:100D200021480088642821D1FFF739FE1448B0F922
:100D300000101E48FFF796FB5A214120FFF749FF9C
:100D40001448006802F08EFE04B221461748FFF7EF
:100D500089FB5A214720FFF73CFF0D20FFF7FAFDE2
:100D60000A20FFF7F7FD00200F4908800E48008891
:100D7000401C0D49088007B0BDE8F08F000400401A
:100D80001E000020280000202C0000207B14AE470D
:100D9000E17A743F24000020CDCCCCCCCCCCEC3F0D
:100DA0009A9999999999B93F300000201400002030
:100DB00010B56FF0040000F0F8FE2E4800682E49D0
:100DC000B0FBF1F02D4908700846007800EB4001B7
:100DD000C1EBC0104FF6FF7101EAC000284908803E
:100DE00010BD0146254A12784A434FF0E0235A616C
:100DF00000229A611A46126942F001021A6100BF8C
:100E00004FF0E022106900F001021AB100F48032C4
:100E1000002AF5D04FF0E022126922F001024FF0D3
:100E2000E0231A6100229A6170470146144A128831
:100E30004A434FF0E0235A6100229A611A46126930
:100E400042F001021A6100BF4FF0E022106900F089
:100E500001021AB100F48032002AF5D04FF0E022EE
:100E6000126922F001024FF0E0231A6100229A6118
:100E7000704700000000002000127A0032000020BD
:100E800034000020014600BF704700BF494A128865
:100E900002F04002002AF9D0C2B2464B1B1D1A8054
:100EA000704710B586B00446012144F2040000F0FA
:100EB000C5FB4FF40070ADF8140003208DF8160048
:100EC00018208DF8170005A93B4800F0FBF84FF4F7
:100ED0008060ADF8140004208DF8170005A936488D
:100EE00000F0F0F825208DF8000003208DF80100B7
:100EF0008DF8020001208DF80300684600F00BFE1B
:100F000001940020ADF80800ADF80A00ADF80C001F
:100F1000ADF810000C20ADF80E0001A9254800F036
:100F200034FC012240F22551224800F0C6FC012188
:100F3000204800F0B6FC06B010BD10B540F22551B7
:100F40001C4800F09FFD10B31A4800F01BFDC4B20E
:100F50001A48008800F40040C8B91848008800F416
:100F6000804060B10A2C03D000201449088020E0A2
:100F70001248008840F400401049088019E00D2C08
:100F800006D10E48008840F480400C49088010E0EB
:100F90000A480088C0F30D0009490C54074800882E
:100FA000401C0649088008460088C72801DD00204B
:100FB000088010BD00380140000801403C000020BE
:100FC0005E0000200948804709480047FEE7FEE729
:100FD000FEE7FEE7FEE7FEE7FEE7FEE7FEE7FEE7E9
:100FE00004480549054A064B7047000013030008F2
:100FF00031010008880100208807002088030020B4
:101000008803002010B50446CC48844208D1012151
:10101000042000F02DFB0021042000F029FB46E015
:10102000C748844208D10121082000F021FB00219B
:10103000082000F01DFB3AE0C248844208D101219B
:10104000102000F015FB0021102000F011FB2EE015
:10105000BD48844208D10121202000F009FB002175
:10106000202000F005FB22E0B848844208D101218D
:10107000402000F0FDFA0021402000F0F9FA16E0CF
:10108000B348844208D10121802000F0F1FA002108
:10109000802000F0EDFA0AE0AE48844207D1012139
:1010A000801500F0E5FA0021A01500F0E1FA10BD6E
:1010B00010B50121084600F0DBFA0021012000F004
:1010C000D7FA10BD2DE9F041024600250026002088
:1010D00000230024002791F803C00CF00F0591F8BD
:1010E00003C00CF0100CBCF1000F03D091F802C04B
:1010F0004CEA050591F800C0BCF1000F31D014682E
:1011000000202BE04FF0010C0CFA00F3B1F800C006
:101110000CEA03069E4220D183004FF00F0C0CFA1C
:1011200003F7BC4305FA03FC4CEA040491F803C03E
:10113000BCF1280F06D14FF0010C0CFA00FCC2F8EC
:1011400014C00AE091F803C0BCF1480F05D14FF07C
:10115000010C0CFA00FCC2F810C0401C0828D1D3C6
:101160001460B1F800C0BCF1FF0F34DD54680020FA
:101170002EE000F1080C4FF0010808FA0CF3B1F86A
:1011800000C00CEA03069E4221D183004FF00F0CF1
:101190000CFA03F7BC4305FA03FC4CEA040491F88B
:1011A00003C0BCF1280F05D100F1080C08FA0CF8B7
:1011B000C2F8148091F803C0BCF1480F07D100F1C8
:1011C000080C4FF0010808FA0CF8C2F81080401C17
:1011D0000828CED35460BDE8F0814FF6FF7101803E
:1011E000022181700421C17070470246002093687B
:1011F0000B400BB1012000E00020704701468868D9
:1012000080B2704702460020D3680B400BB101202A
:1012100000E0002070470146C86880B27047016155
:101220007047416170470AB1016100E04161704758
:10123000C16070474FF480320A43826181618261EC
:1012400082698269704702460020434B18684FF656
:101250008073184040EA021008433F4B1860704703
:101260003E49C8617047F0B50A46002300240021BA
:10127000002500F00046B6F1004F02D1364EF1696C
:1012800001E0354E7168C0F3034583B200F44016A7
:10129000B6F5401F08D121F070612F4E766826F018
:1012A00070662D4F7E6012E000F48016B6F5801F48
:1012B00006D1032606FA05F4A14341F0706106E069
:1012C000460D360103FA06F6B14341F0706122B1D2
:1012D000460D360103FA06F6314300F00046B6F13A
:1012E000004F02D11C4EF16101E01B4E7160F0BD58
:1012F00030B500228B071C0F0F2303FA04F2164BA4
:1013000008338C1053F824309343134C08348D1059
:1013100044F8253023468C1053F824308C07240FD2
:1013200000FA04F423430C4C08348D1044F82530A3
:1013300030BD0A49DC3108607047000000080140F8
:10134000000C014000100140001401400018014051
:10135000001C01400020014000000140000020422C
:10136000DF48006840F00100DD4908600846406839
:10137000DC490840DA49486008460068DA49084014
:10138000D74908600846006820F4802008600846B5
:10139000406820F4FE0048604FF41F0088607047EA
:1013A000CF49096821F48031CD4A1160114609689E
:1013B00021F480211160B0F5803F03D0B0F5802F7B
:1013C0000ED106E0C649096841F48031C44A116073
:1013D00007E0C349096841F4A021C14A116000E057
:1013E00000BF00BF704710B5014600220023002057
:1013F0004A11012A02D1BA4C236806E0022A02D11E
:10140000B74C236A01E0B64C636A01F01F02012465
:1014100094401C400CB1012000E0002010BD38B504
:10142000002000900024002500BF3120FFF7DBFFE3
:1014300005460098401C00900098B0F5A06F01D0C0
:10144000002DF2D03120FFF7CEFF08B1012400E0DB
:101450000024204638BD01460020A14A106820F033
:10146000F80040EAC10010607047A049086070476A
:10147000024600209A4B586820F47C1042EA01038F
:101480001843974B58607047984908667047014663
:101490000020934A506820F00300084350607047D2
:1014A0008F48406800F00C007047014600208C4ACD
:1014B000506820F0F000084350607047014600205B
:1014C000874A506820F4E060084350607047014646
:1014D0000020834A506820F4605040EAC100506008
:1014E000704729B17E4A527A02437D4B5A7204E01A
:1014F0007B4A527A82437A4B5A7270477B49D83181
:101500000860704701460020754A506820F440404A
:101510000843506070470021714A20321170704AB0
:1015200082F82010012802D004280AD104E0012109
:101530006B4A2032117005E00521694A2032117092
:1015400000E000BF00BF7047694908607047644908
:10155000096A0143624A116270476549443908606B
:10156000704730B500210022002400235C4D6D68D7
:1015700005F00C0121B1042905D0082923D105E08B
:101580005C4D056022E05B4D05601FE0544D6D68C9
:1015900005F47012524D6D6805F48034022505EB98
:1015A00092421CB9544D554305600BE04C4D6D689B
:1015B00005F400351DB1504D5543056002E04D4D19
:1015C0005543056002E04B4D056000BF00BF444D30
:1015D0006D6805F0F0010909484D6B5C0568DD4058
:1015E00045603F4D6D6805F4E061090A434D6B5C51
:1015F0004568DD4085603A4D6D6805F46051C90A63
:101600003E4D6B5C4568DD40C560354D6D6805F449
:101610004041890B3A4D6B5CC568B5FBF3F505613C
:1016200030BD29B12E4A526902432D4B5A6104E064
:101630002B4A526982432A4B5A61704729B1284A82
:1016400092690243264B9A6104E0254A92698243DB
:10165000234B9A61704729B1214AD2690243204B3A
:10166000DA6104E01E4AD26982431D4BDA61704799
:1016700029B11B4AD2680243194BDA6004E0184AC8
:10168000D2688243164BDA60704729B1144A126956
:101690000243134B1A6104E0114A12698243104B52
:1016A0001A61704712494039086070470F49C86491
:1016B00070470B49C87170470948406A40F0807014
:1016C00007494862704701460020054A92680A406F
:1016D0000AB1012000E0002070470149887270477C
:1016E000001002400000FFF8FFFFF6FE000042423B
:1016F0008004424200127A0000093D003E000020B2
:101700004E00002010B50446FB48844209D1012157
:101710008803FFF7ADFF00214FF48040FFF7A8FFDB
:1017200032E0F648844209D101214804FFF7ADFFB9
:1017300000214FF40030FFF7A8FF25E0F048844275
:1017400009D101218804FFF7A0FF00214FF4802078
:10175000FFF79BFF18E0EB48844209D10121C80440
:10176000FFF793FF00214FF40020FFF78EFF0BE0FF
:10177000E548844208D101210805FFF786FF0021D2
:101780004FF48010FFF781FF10BD2DE9F04786B0C0
:1017900005460E460024A24600BFA1460027B08998
:1017A00000B100BF2F462C8A4CF6FF700440F08831
:1017B00004432C82AC894EF6F3100440B088318982
:1017C0000843718908430443AC81AC8A4FF6FF405B
:1017D0000440B0890443AC8201A8FFF7C2FEC648AA
:1017E000874202D1DDF810A001E0DDF80CA0A88945
:1017F00000F4004040B10AEBCA0000EB0A10316867
:101800004900B0FBF1F807E00AEBCA0000EB0A1050
:1018100031688900B0FBF1F86420B8FBF0F00401F6
:101820002009642101FB1089A88900F4004040B11F
:10183000322000EBC900B0FBF1F000F007000443D8
:1018400008E0322000EB09106421B0FBF1F000F059
:101850000F0004432C8106B0BDE8F0874FF4165109
:10186000016000218180C18001810C214181002122
:101870008181704710B502460020108A4FF2FF03A5
:1018800018400B884C8823438C882343CC882343FF
:101890001843108210BD0021018041808180C180E9
:1018A000704721B1828942F40052828104E082892A
:1018B0004DF6FF731A4082817047F0B5034600244D
:1018C00000260025002040F66A17B94200D100BF6B
:1018D0001846C1F3421401F01F06012707FA06F566
:1018E000012C01D10C3004E0022C01D1103000E0B9
:1018F00014301AB107682F43076002E00768AF434E
:101900000760F0BD1AB1838A0B43838202E0838AA9
:101910008B4383827047028A4FF6F0731A4002822B
:10192000028A0A430282704782894FF2FF731A408B
:10193000828182890A438281704721B1828942F083
:101940000202828104E082894FF6FD731A4082818F
:101950007047028A4FF6DF731A400282028A0A43F6
:101960000282704721B1028A42F48042028204E07E
:10197000028A4BF6FF731A4002827047C1F30802D5
:101980008280704701468888C0F3080070478189CB
:1019900041F0010181817047028BD2B20283028B38
:1019A00042EA012202837047028B02F47F420283E3
:1019B000028B0A430283704721B1828A42F02002DF
:1019C000828204E0828A4FF6DF731A408282704777
:1019D00021B1828A42F01002828204E0828A4FF6AC
:1019E000EF731A408282704721B1828A42F0080266
:1019F000828204E0828A4FF6F7731A40828270472F
:101A000021B1828942F40042828103E08289C2F3DB
:101A10000E028281704721B1828A42F40062828282
:101A200004E0828A4FF2FF731A4082827047828AF2
:101A30004FF6FB731A408282828A0A438282704781
:101A400021B1828A42F00202828204E0828A4FF649
:101A5000FD731A408282704702460020B1F5007F74
:101A600000D100BF13880B400BB1012000E0002023
:101A7000704701F40072B2F5007F00D100BFCA4385
:101A80000280704770B50246002400230025002024
:101A900040F66A16B14200D100BFC1F3421501F011
:101AA0001F03012606FA03F3012D02D19689334064
:101AB00006E0022D02D1168A334001E0968A3340B7
:101AC0000C12012606FA04F41688344013B10CB146
:101AD000012000E0002070BD10B50022002340F678
:101AE0006A14A14200D100BF0A1201249440A3B29B
:101AF000DC43048010BD0000003801400044004079
:101B000000480040004C0040005000403149014373
:101B1000314A1160704770B5002100230F22C4784C
:101B200004B32D4C246804F4E064C4F5E064210A95
:101B3000C1F10403CA40447804FA03F184781440E4
:101B400021430901254C0678A155047804F01F05AE
:101B50000124AC4005786D11AD0005F1E025C5F814
:101B6000004109E0047804F01F050124AC401C4D3D
:101B70000678761145F8264070BD1A4A0A4002439D
:101B8000154B1B1F1A60704739B1134A121D12689A
:101B90000243114B1B1D1A6006E00F4A121D12680A
:101BA00082430D4B1B1D1A607047042808D14FF06B
:101BB000E021096941F004014FF0E022116107E0E2
:101BC0004FF0E021096921F004014FF0E02211619A
:101BD000704700000000FA050CED00E000E400E0B2
:101BE00080E100E080FFFF1F10B50121C802FFF770
:101BF0004CFD00214FF40060FFF747FD10BD0021B0
:101C0000194A126822F4C0710143174A11607047E3
:101C100008B5002100911449096821F07F01009165
:101C200000F07F01009A114300910F4A0099116062
:101C300008BD01200D490860704700F07F010A4A85
:101C4000121F1160704740F08001074A121F116097
:101C500070470548001D0068C0B270470020024967
:101C6000091D086070470000042C0040A480054254
:101C700001460020FE4A106800F03800084310605A
:101C80007047FB49096821F00801F94A11601146C3
:101C90000968014311607047F549096821F0100196
:101CA000F34A116011460968014311607047F14819
:101CB000EF494860F04848607047EE48EC4948609A
:101CC000ED4848607047EA48006940F08000E84904
:101CD00008617047E648006940F08000E449086107
:101CE00070470420E249C96801F0010109B10120EF
:101CF0000EE0DF49C96801F0040109B1022007E0E4
:101D0000DB49C96801F0100109B1032000E004209B
:101D1000704700B502460423FFF7E3FF034603E0E4
:101D2000FFF7DFFF0346521E012B01D1002AF7D136
:101D300002B90523184600BD30B5044604254FF40A
:101D40003020FFF7E6FF0546042D17D1C84800698B
:101D500040F00200C649086108464461006940F04D
:101D6000400008614FF43020FFF7D3FF0546C0481C
:101D7000006941F6FD710840BD490861284630BD43
:101D800010B504244FF43020FFF7C3FF0446042CA1
:101D900016D1B748006940F00400B549086108460B
:101DA000006940F0400008614FF43020FFF7B1FFB8
:101DB0000446AF48006941F6FB710840AC49086130
:101DC000204610BD00B502460423FFF78AFF0346F4
:101DD00003E0FFF786FF0346521E012B01D1002AC4
:101DE000F7D102B90523184600BD10B504244FF4FD
:101DF0003020FFF7E7FF0446042C16D19C48006909
:101E000040F004009A4908610846006940F040002B
:101E100008614FF43020FFF7D5FF0446944800696D
:101E200041F6FB71084092490861204610BD002030
:101E30008F49C96901F0020109B1012000E00020C9
:101E4000704730B5A5250424FFF7F1FF00B1002548
:101E50004FF43020FFF75DFF0446042C3AD185484B
:101E600083498860844888600846006940F0200003
:101E700008610846006940F0400008614FF43020D6
:101E8000FFF747FF0446042C1BD17948006941F64F
:101E9000DF710840764908610846006940F010008B
:101EA000086176480580E002FFF733FF0446052C01
:101EB00010D06F48006941F6EF7108406C49086125
:101EC00008E0052C06D06A48006941F6EF71084029
:101ED00067490861204630BD78B506460C460425A2
:101EE00000200090E802FFF714FF0546042D24D1DE
:101EF0005F48006940F001005D4908613480E802F4
:101F0000FFF707FF0546042D10D1B01C0090200CF0
:101F100000990880E802FFF7FCFE05465448006976
:101F200041F6FE7108405249086106E050480069D8
:101F300041F6FE7108404E490861284678BD70B5EB
:101F400004460D460426F002FFF7E3FE0646042E83
:101F500011D14748006940F00100454908612580DA
:101F6000F002FFF7D6FE06464148006941F6FE71D1
:101F700008403F490861304670BD70B505460E46C1
:101F80000424E002FFF7C5FE0446042C17D13948AB
:101F900037498860384888600846006940F010007A
:101FA00008612E80E002FFF7B4FE0446052C06D03F
:101FB0002F48006941F6EF7108402D49086120461D
:101FC00070BD2DE9F04304464FF6FF763746B04624
:101FD000B1460425E443E6B2C4F30727C4F3074837
:101FE0004FEA1469E802FFF794FE0546042D49D133
:101FF00020481F498860204888600846006940F0F2
:1020000010000861FF2E06D01C4808300680E80248
:10201000FFF77FFE0546042D08D1FF2F06D0174895
:102020000A300780E802FFF774FE0546042D0AD146
:10203000B8F1FF0F07D011480C30A0F80080E8027B
:10204000FFF767FE0546042D0AD1B9F1FF0F07D04F
:102050000A480E30A0F80090E802FFF75AFE054645
:10206000052D0FD00248006941F6EF71084007E0E6
:102070000020024023016745AB89EFCD00F8FF1F28
:10208000664908612846BDE8F08330B5054604245A
:102090004FF43020FFF73DFE0446042C41D1604848
:1020A0005E4988605F4888600846006940F020000B
:1020B00008610846006940F0400008614FF4302094
:1020C000FFF727FE0446042C22D15448006941F64C
:1020D000DF710840514908610846006940F010006E
:1020E00008611DB100205049088002E0A5204E493A
:1020F00008804FF43020FFF70CFE0446052C10D06A
:102100004648006941F6EF7108404449086108E01B
:10211000052C06D04148006941F6DF7108403F496F
:102120000861204630BDF0B505460E46174604242A
:102130003B483A4988603B488860E002FFF7E9FD88
:102140000446042C19D13548006940F01000334989
:10215000086147F0F800304328433349891C088060
:10216000E002FFF7D6FD0446052C06D02B48006997
:1021700041F6EF710840294908612046F0BD274823
:10218000C069800870472548006A704700202349CD
:10219000096801F0200109B1012000E0002070472A
:1021A00029B11E4A126902431C4B1A6104E01B4A02
:1021B00012698243194B1A617047014600200129B8
:1021C00008D1164AD26902F001020AB1012008E0E2
:1021D000002006E0114AD2680A400AB1012000E05E
:1021E000002070470D49C860704704200B49C9683A
:1021F00001F0010109B101200EE00849C96801F0B0
:10220000040109B1022007E00449C96801F0100186
:1022100009B1032000E004207047000000200240C4
:1022200023016745AB89EFCD00F8FF1F10B50446C9
:10223000FE48844208D10121C014FFF719FA002199
:10224000E014FFF715FAC4E0B4F1804F08D1012182
:102250000846FFF71AFA00210120FFF716FAB8E046
:10226000F348844208D101210220FFF70EFA002131
:102270000220FFF70AFAACE0EE48844208D10121BF
:102280000420FFF702FA00210420FFF7FEF9A0E086
:10229000E948844208D101210820FFF7F6F900211E
:1022A0000820FFF7F2F994E0E448844208D10121C4
:1022B0001020FFF7EAF900211020FFF7E6F988E087
:1022C000DF48844208D101212020FFF7DEF90021F8
:1022D0002020FFF7DAF97CE0DA48844208D10121B6
:1022E0004014FFF7C5F900216014FFF7C1F970E051
:1022F000D548844209D10121C804FFF7B9F900216A
:102300004FF40020FFF7B4F963E0D048844209D1CC
:1023100001210805FFF7ACF900214FF48010FFF709
:10232000A7F956E0CA48844209D101214805FFF7C0
:102330009FF900214FF40010FFF79AF949E0C548D2
:10234000844208D101214020FFF79FF9002140205D
:10235000FFF79BF93DE0C048844208D1012180206D
:10236000FFF793F900218020FFF78FF931E0BB4898
:10237000844208D101218015FFF787F90021A015BB
:10238000FFF783F925E0B648844209D1012108040A
:10239000FFF76EF900214FF48030FFF769F918E07C
:1023A000B048844209D101214804FFF761F90021B6
:1023B0004FF40030FFF75CF90BE0AB48844208D1E2
:1023C00001218804FFF754F900214FF48020FFF722
:1023D0004FF910BD00220288944B98420ED0994BC1
:1023E00098420BD0B0F1804F08D0914B984205D065
:1023F000904B984202D0904B984204D14FF68F7385
:102400001A404B881A438D4B984207D08C4B984208
:1024100004D04FF6FF431A40CB881A4302808B88C2
:1024200083850B880385814B98420BD0854B98425E
:1024300008D08B4B984205D08A4B984202D08A4BE9
:10244000984201D10B7A038601238382704770B5CD
:10245000002400220023058C4FF6FE7635400584CB
:10246000028C8388048B4FF68F752C40B51E2C4050
:102470000D882C43751E2A400D892A434D882A4316
:102480006A4DA8420BD06F4DA84208D0744DA842A7
:1024900005D0744DA84202D0734DA84213D14FF617
:1024A000F7752A404D892A434FF6FB752A408D88DF
:1024B0002A434FF6FF652B404FF6FF552B408D8981
:1024C0002B43CD892B4383800483CD88858602846A
:1024D00070BD70B5002400220023058C4FF6EF7606
:1024E00035400584028C8388048B48F6FF752C40A8
:1024F0004FF6FF452C400D884FF6FF7606EA05257E
:102500002C434FF6DF752A400D8906EA05152A434C
:102510004D8806EA05152A43444DA84202D0494D8C
:10252000A8421DD14FF67F752A404D894FF6FF76A0
:1025300006EA05152A434FF6BF752A408D8806EA3C
:1025400005152A434FF6FF352B404FF2FF752B4000
:102550008D8906EA85052B43CD8906EA85052B433F
:1025600083800483CD880587028470BD70B5002404
:1025700000220023058C4FF6FF6635400584028C4F
:102580008388848B4FF68F752C404FF6FC752C405A
:102590000D882C434FF6FF552A400D894FF6FF76E4
:1025A00006EA05252A434D8806EA05252A431F4DDC
:1025B000A84202D0234DA8421DD14FF2FF752A40F8
:1025C0004D894FF6FF7606EA05252A434FF6FF357B
:1025D0002A408D8806EA05252A434EF6FF752B40D2
:1025E0004DF6FF752B408D8906EA05152B43CD89E5
:1025F00006EA05152B4383808483CD888587028472
:1026000070BD70B5002200230024058C4EF6FF76C5
:1026100035400584038C8488828B48F6FF752A40F8
:102620004FF6FF452A400D8820E00000002C0140B5
:102630000004004000080040000C00400010004072
:102640000014004000340140004C014000500140A3
:102650000054014000180040001C004000200040D1
:102660000040014000440140004801404FF6FF7621
:1026700006EA05252A434DF6FF752B400D8906EA2B
:1026800005352B434D8806EA05352B43FA4DA84204
:1026900002D0FA4DA84208D14BF6FF752C408D8927
:1026A0004FF6FF7606EA85152C4384808283CD8819
:1026B000A0F84050038470BD828B4FF2FF331A4064
:1026C0008283828B4FF6FF7303EA01231A438283CE
:1026D0007047F0B50C461546002200210026078CF5
:1026E0004EF6FF7C07EA0C070784828B018C4FF6BD
:1026F000FF7707EA043640F6FF473A404FF6FF7788
:1027000007EA05273A434FF6FF7707EA03373A43CC
:10271000D94FB8420ED0D94FB8420BD0B0F1804F4C
:1027200008D0D74FB84205D0D64FB84202D0D64FC6
:10273000B84206D14DF6FF77394046F48057394309
:1027400005E047F6FF57394044F480573943828308
:102750000184F0BD828B4FF6F3731A408283828B23
:102760000A4382837047F0B50C46154600220021CB
:102770000026078C4FF6FF6C07EA0C070784828B54
:10278000018C4FF6FF7707EA04264FF60C773A40A4
:102790004FF6FF7707EA03172F433A43B64FB84285
:1027A0000ED0B64FB8420BD0B0F1804F08D0B44F26
:1027B000B84205D0B34FB84202D0B34FB84206D1A9
:1027C0004FF6FF57394046F48077394305E04FF222
:1027D000FF57394044F48077394382830184F0BD48
:1027E000028B4FF2FF331A400283028B4FF6FF73C6
:1027F00003EA01231A4302837047F0B50C461546DD
:10280000002200210026078C4FF6EF7C07EA0C0718
:102810000784028B018C4FF6FF7707EA041640F617
:10282000FF473A404FF6FF7707EA03373A434FF640
:10283000FF7707EA05273A438F4FB8420ED08F4FF4
:10284000B8420BD0B0F1804F08D08D4FB84205D0C0
:102850008C4FB84202D08C4FB84206D14FF6DF778A
:10286000394046F01007394305E04FF65F773940AD
:1028700044F01007394302830184F0BD028B4FF608
:10288000F3731A400283028B0A4302837047F0B548
:102890000C46154600220021068C4FF6FE773E407E
:1028A0000684028B018C4FF60C7632407E1C06EAC1
:1028B00003162E433243704EB0420ED06F4EB042DC
:1028C0000BD0B0F1804F08D06D4EB04205D06D4EA8
:1028D000B04202D06C4EB04206D14FF6FD76314088
:1028E00044F00106314305E04FF6F576314044F0FF
:1028F0000106314302830184F0BD70B505460C46E4
:102900005D4885420ED05D4885420BD0B5F1804FC1
:1029100008D05B48854205D05A48854202D05A48C3
:10292000854200D100E000BF208850B92389A288E9
:1029300061882846FFF7ABFFE1882846FFF79EFF36
:1029400025E0208804280AD12389A28861882846A6
:10295000FFF753FFE1882846FFF742FF17E0208882
:1029600008280AD12389A28861882846FFF7FBFE40
:10297000E1882846FFF7EEFE09E02389A2886188F6
:102980002846FFF7A6FEE1882846FFF795FE70BDB2
:102990002DE9F04105460C4600260127608808B95C
:1029A000022600E00026A088012801D1022700E0CD
:1029B00001272088A0B92389A28861882846FFF7CB
:1029C00066FFE1882846FFF759FF23893A463146DA
:1029D0002846FFF712FFE1882846FFF701FF13E0C2
:1029E0002389A28861882846FFF707FFE1882846E7
:1029F000FFF7F6FE23893A4631462846FFF747FFA0
:102A0000E1882846FFF73AFFBDE8F0810A884B8845
:102A10001A438B881A43CB881A430B891A434B8974
:102A20001A438B891A43A0F8442070474FF6FF7170
:102A3000818000210180C1804180017270470021A6
:102A4000018041808180C180018141818181C1817A
:102A50007047002101804180012181800021C180D7
:102A6000018170470021018041808180C180018106
:102A70004181818170470000002C014000340140F9
:102A80000004004000080040000C004021B1028812
:102A900042F00102028004E002884FF6FE731A4001
:102AA0000280704731B1B0F8442042F40042A0F8EF
:102AB000442005E0B0F84420C2F30E02A0F8442000
:102AC00070471AB183890B43838102E083898B436A
:102AD000838170478182704741EA0203A0F8483041
:102AE00070471AB183890B43838102E083898B434A
:102AF0008381704701894FF6F87211400181704758
:102B00000A46002101894FF68F7319401143018154
:102B1000704730B504460D4629462046FFF7F0FFC2
:102B2000208940F00700208130BD2DE9F0410446A6
:102B30000D4616461F46602D06D13B460122314602
:102B40002046FFF75AFE05E03B460122314620466B
:102B5000FFF79DFE29462046FFF7D2FF208940F06F
:102B600007002081BDE8F08130B50C4600210189C5
:102B7000C9B24FF6FF7505EA0325154325432943DE
:102B8000018130BD2DE9F04105460E4617469846B5
:102B9000002443463A4631462846FFF7E5FF2C8994
:102BA0004FF6F870044044F007044FF68F7004406D
:102BB00044F070042C81BDE8F081F0B504460D4668
:102BC00016461F463B46324629462046FFF7CCFFB5
:102BD000208940F480402081F0BD018582827047C9
:102BE0000A46002101884FF68F7319401143018076
:102BF0007047F0B50C4615461E4600210022002302
:102C00000189028B038C4FF6F877394021434FF648
:102C1000FC473A4040F201173A434FF6DD773B401C
:102C20004FF6FF7707EA06172F433B4301810283E4
:102C30000384F0BD0A460021018B4FF68F731940C3
:102C40001143018370470A460021018B48F6FF7348
:102C500019404FF6FF7303EA0223194301837047BB
:102C60000A460021818B4FF68F73194011438183EF
:102C700070470A460021818B48F6FF7319404FF6D2
:102C8000FF7303EA022319438183704721B102884D
:102C900042F08002028004E002884FF67F731A40FF
:102CA0000280704721B1828842F00402828004E0F1
:102CB00082884FF6FB731A408280704721B1828868
:102CC00042F00802828004E082884FF6F7731A40CF
:102CD0008280704721B1828842F00102828004E044
:102CE00082884FF6FE731A40828070470A460021A0
:102CF000018B4FF6F77319401143018370470A4661
:102D00000021018B4FF2FF7319404FF6FF7303EA66
:102D100002231943018370470A460021818B4FF635
:102D2000F77319401143818370470A460021818B54
:102D30004FF2FF7319404FF6FF7303EA0223194362
:102D4000818370470A460021018B4FF6FB731940BF
:102D50001143018370470A460021018B4FF6FF3370
:102D600019404FF6FF7303EA0223194301837047AA
:102D70000A460021818B4FF6FB7319401143818372
:102D800070470A460021818B4FF6FF3319404FF6FA
:102D9000FF7303EA02231943818370470A46002127
:102DA000018B4FF67F7319401143018370470A4628
:102DB0000021018BC1F30E014FF6FF7303EA0223DA
:102DC0001943018370470A460021818B4FF67F73B8
:102DD00019401143818370470A460021818BC1F35A
:102DE0000E014FF6FF7303EA0223194381837047F4
:102DF0000A460021018C4FF6FD73194011430184EE
:102E000070470A460021018C4FF6F77319401143B1
:102E1000018470470A460021018C4FF6DF73194088
:102E20004FF6FF7303EA02131943018470470A4601
:102E30000021018C4FF67F7319404FF6FF7303EAB0
:102E400002131943018470470A460021018C4FF692
:102E5000FF5319404FF6FF7303EA0223194301841D
:102E600070470A460021018C4FF2FF7319404FF65C
:102E7000FF7303EA02231943018470470A460021C5
:102E8000018C4DF6FF7319404FF6FF7303EA0233CE
:102E900019430184704730B5002301248C40A3B24C
:102EA000048C9C430484048C02FA01F5ADB22C43DB
:102EB000048430BD30B5002304248C40A3B2048CBC
:102EC0009C430484048C02FA01F5ADB22C430484C3
:102ED00030BD70B503460020002418461830012587
:102EE0008D40ACB21D8CA5431D8409B1082909D1C0
:102EF00000EB6100056825F0700505600568154365
:102F000005600EE00D1FC5F34E052844056825F445
:102F1000E045056005684FF6FF7606EA0226354370
:102F2000056070BD21B1028842F00202028004E017
:102F300002884FF6FD731A400280704721B1028863
:102F400042F00402028004E002884FF6FB731A404C
:102F50000280704721B1828842F08002828004E0C2
:102F600082884FF67F731A408280704702884FF63E
:102F7000F7731A40028002880A43028070478288F1
:102F80004FF68F731A40828082880A43828070478E
:102F900002894FF6F8731A40028102890A430281BE
:102FA000704702894FF67F731A40028102890A43F3
:102FB00002817047818470478185704781867047A0
:102FC0000187704781877047A0F8401070470288DA
:102FD0004FF6FF431A40028002880A43028070477E
:102FE0000146888E70470146088F70470146888FDA
:102FF00070470146B1F8400070470146888C704721
:103000000146088D704702460020138A0B400BB121
:10301000012000E000207047CA430282704730B5AB
:103020000246002000230024158A05EA0103958941
:1030300005EA010413B10CB1012000E0002030BD0D
:10304000CA430282704770470FB4044910B503AAFF
:10305000029800F009F810BC5DF814FB380000205D
:103060007047704770477047074B70B50D467B44FB
:1030700000F011F80446284600F020F810B14FF097
:10308000FF3070BD204670BD19DEFFFF01694A1C8C
:1030900002610878704700B58FB0CDE90131002199
:1030A000059105497944CDE903101146684600F0C1
:1030B0002EF80FB000BD0000E5FFFFFF007B00F021
:1030C00080007047754600F03DF8AE460500694641
:1030D000534620F00700854618B020B5FDF780FF65
:1030E000BDE820404FF000064FF000074FF0000809
:1030F0004FF0000B21F00701AC46ACE8C009ACE88A
:10310000C009ACE8C009ACE8C0098D4670472DE99C
:10311000F04106460024D6E90170F5688046304645
:1031200003E04146B847641C3046A8470028F8D160
:103130002046BDE8F0810446AFF300802046FDF74D
:103140003EF80000004870472801002021F00042AE
:10315000A2F16052B2F5801F01F0004328BFD2F106
:103160007F6C0BD95FEA001C43EAC20242EB50704D
:1031700018BF704728BF20F001007047B2F5801FCC
:10318000BCBF184670474FEA410C1CF5001F02D225
:10319000084600F0E1BC70B500F0FAFA00000089C2
:1031A000FFF7F6BF4FF00040A0F580007047000029
:1031B00010B591EA030F48BF83F0004300F1448348
:1031C000841A71EB030C05D2121943EB0C03001B9C
:1031D00061EB0C01DFF824E14FEA1154A4EB135C1E
:1031E0001EEA430F18BF9EEA445F73D023EA0E0322
:1031F000DCF1200E21EA045143F4801332D322FA89
:103200000CFE10EB0E0023FA0CFE41EB0E01CCF18C
:10321000200E03FA0EFE10EB0E0051F10001B1F585
:10322000801FCCF1200E32D201EB045112FA0EF2C3
:10323000BDE8104058BF7047401C38BF5FEA4202EB
:1032400018BF7047002814BF20F0010041F10001B1
:103250004FEA410313F5001F38BF7047A1F1C04189
:1032600000F0E4BA012A43EB0302ACF1200CDCF1DC
:103270001F0E32BF4FF0000E23FA0CF310EB0300C9
:1032800041EB0451B4EB115FD0D0A1EB045101F537
:10329000801149085FEA300001EB04510ED350F170
:1032A000000038BF12FA0EFE08D1BDE81040C9E791
:1032B000401C38BF5FEA4202CAD1C3E7BDE81040F4
:1032C0004FEA410313F5001F38BF7047A1F1C04119
:1032D00000F0ACBA9EEA445F08D011EA5E0FBDE888
:1032E000104004BF01F0004100207047BDE81040CD
:1032F00070B500F04DFA00BF64FBBE3E0000E0FF79
:103300002DE9C04130B4DFF8A0C23CEA111418BF67
:103310003CEA131400F0EC8081EA03051CEA111466
:1033200044EAD57418BF1CEA131500F0C780A4EB5B
:1033300005044FF0004545EAC12145EAC32341EAAF
:10334000505143EA525304F17F74994204F500341A
:103350004FEAC0204FEAC22208BF904200F09C8092
:103360004FEA13650FF24016765D4FEA134506FBF0
:1033700005F7C7F1807706FB07F74FEAD737A7FBBA
:1033800003687642C8F58038A7FB06CE38BFA8F19F
:10339000010807FB08E64FF0000EA6FB028CE6FBD7
:1033A00003CEDCF1000CCEF1004E38BFAEF1010EC1
:1033B000A6FB0C584FF000074FF00005E6FB0E8708
:1033C000A1FB08C6A0FB07CE16EB0E0645F10005D3
:1033D000E1FB076515F1E04E7EBFA4F580345FEA9E
:1033E00046066D4116F1800745F100054FEA1727A3
:1033F0004FEA066647EA0567A6F1DE46B6F1805F4A
:103400004FEA15251FD9384624F0010C05EBC4718D
:10341000BCF1FE6F01EB0C1102D8F0BCBDE80081DD
:1034200024425CBF01F5801E9EEAC47F02D4F0BC3A
:10343000BDE80081244238D4F0BCA1F1C041BDE810
:10344000004100F0F3B94FEAD22242EA43524FEA78
:10345000D323A7FB02864FEAD02040EA415007FB66
:1034600003661EEA0E0F4FEAD12105FB026658BF24
:10347000A6EB0056B6EB00564FEA520E4EEAC37E5C
:1034800018EB0E0E56EB530EBDD518EB02085E413D
:103490007F1C55F10005B6E74FF480154FF000078B
:1034A0004FF000064FF00008ADE7F0BC4FF0000011
:1034B00001F1C04101F00041BDE8008111EA0C1F9B
:1034C0000CEA131500D00CE013EA0C1F00F0258065
:1034D0004FF00000F0BC81EA030101F00041BDE8BB
:1034E0000081F0BCBDE8004181EA030100F09EB913
:1034F000F0BCBDE8004170B500F04AF9097EFC3E21
:1035000000F007B881EA03014FF0000001F000412C
:10351000704781EA030100F089B9F0BCBDE80041C1
:103520004FF0000021497047FFFDFBF9F7F5F4F279
:10353000F0EEEDEBE9E8E6E4E3E1E0DEDDDBDAD84E
:10354000D7D5D4D3D1D0CFCDCCCBCAC8C7C6C5C4AC
:10355000C2C1C0BFBEBDBCBBBAB9B8B7B6B5B4B3C3
:10356000B2B1B0AFAEADACABAAA9A8A8A7A6A5A4AE
:10357000A3A3A2A1A09F9F9E9D9C9C9B9A99999872
:103580009797969595949393929191908F8F8E8E15
:103590008D8C8C8B8B8A89898888878786858584A2
:1035A00084838382828181800000FF070000F87F8E
:1035B0004FEA41034FEA5353A3F58063D3F11E034F
:1035C000C8BFD3F1210C0CDD4FF0004242EAC1220A
:1035D00042EA505232FA03FC8CEAE17CACEBE17037
:1035E0007047102BC4BF0020704703F5787CBCF1F6
:1035F000FF3F04D06FF0004282EA2100704770B5AF
:1036000000F0C6F84992248000207047F2E710F0DD
:10361000004248BF4042B0FA80F310FA03F10AD0EA
:10362000C3F11D0303F580634FEA415002EB0352DF
:1036300002EBD12170474FF000007047DFF848C11E
:1036400070B51CEA111E1EBF1CEA13159EEA0C0F72
:1036500095EA0C0F00F06F8081EA030423EA4C1313
:103660004EEAD47E21EA4C1141F4801143F48013D8
:10367000AE44A1FB024CA0FB0365AEF17F7E361980
:1036800055EB0C05A1FB034C4CF10003A0FB021C05
:1036900016EB0C06654153F10003094218BF46F0D2
:1036A000010613F4007F0BD14FEA03314FEA0530D6
:1036B000340341EA155140EA16506FF003020AE064
:1036C0004FEAC3214FEAC520F40241EA555140EACE
:1036D00056506FF0020202EB2E4201EB025585EAD2
:1036E000CE710AD05FEA440C18BF24F0004450F1B8
:1036F000000041F1000120EAD47040F2FE7C6245F6
:1037000000D270BDA84214BF4FF080444FF0404437
:10371000002E08BF0024BEF1806FA8BFA1F1C041F8
:10372000BDE8704080F282804FF0000001F1C0419E
:1037300001F0004170479EEA0C0F0CEA131518BF08
:1037400095EA0C0F06D04FF0000081EA030E0EF050
:10375000004170BD00F01CF88900013E00F007B880
:1037600000F009B84FEA430C5FEA5C5C08D081EADC
:10377000030100F05BB84FEA410C5FEA5C5CF6D1F4
:103780004FF00000014970470000FF070000F87F7C
:103790000EF1020E2EF0030E5EF8046B364205D4D5
:1037A000012A43EB030515F5001F12D8012841EB50
:1037B000010C1CF5001F0CD80ED14FEAD17C15F579
:1037C000001F0CEB4C0C0CF1020C08BF4CEBD37C33
:1037D00004E04FF0080C01E04FEAD37C0CEB4C0501
:1037E00026FA05F606F00706B6F1040C06D20EEB33
:1037F000860CBDE870404CF0010C6047DFE80CF02F
:10380000090B02024FF000414FF00000A1F500212A
:1038100070BD19461046012851EB010418BFD4F5BC
:10382000001484BF002001F0004170BD0808A0F51D
:1038300000114FEA3101704710B591EA030F48BFFC
:1038400083F000433FF5BCAC841A71EB030C07D244
:1038500012198CF0004C43EB0C03001B61EB0C01C4
:10386000DFF8A4E14FEA1154A4EB135C1EEA430F06
:1038700018BF9EEA445F00F0B08023EA6E03524214
:1038800021EA0451C3EB6E0338BF5B1EDCF1200E4E
:1038900025D322FA0CFE10EB0E0043FA0CFE41EB8E
:1038A0000E01CCF1200E03FA0EFE10EB0E0051F1CA
:1038B0000001CCF1200E29D412FA0EF201EB0451D2
:1038C000BDE8104058BF7047401C1CBFB2F1004F0C
:1038D000704700280CBF491C20F00100704712EB14
:1038E000020E43EB030218BF4FF0010E4EEA4202F4
:1038F000ACF1200CDCF11E0E54D943FA0CFE10EB97
:103900000E0051F1FF31CCF11E0ED5D50EF1010E96
:1039100012FA0EFE404141EB010101EB445C5FEA0B
:103920005C5C10D910EBDE7001EB045138BFBEF1C6
:10393000004FBDE8104018BF704700280CBF491C5D
:1039400020F00100704730D24FEAD42C11F500115D
:1039500024F400641BD0B1FA81F20B3AA41AA41E1D
:10396000D2F12003914030FA03F31943904001EB68
:10397000CC71002C01EB0451BDE81040A8BF70478A
:1039800001F1C0414FF0000001F000417047B0FA72
:1039900080F310FA03F100D110BDE41A173C48057A
:1039A000C90AE4E701EB045110BD491001EB0451D1
:1039B000BDE810404FEA300002E04FF000017047D0
:1039C0004A0008BF0042F8D0B2F5001F28BF704778
:1039D00001F000414FF0000070479EEA445F07D0BD
:1039E00011EA5E0FBDE8104004BF002100207047BF
:1039F000BDE8104070B5FFF7CBFE00BF40DFF63EDC
:103A000083F00041104670470000E0FF43004FEA9A
:103A1000D30C4FEA3C0C43401FBF40070CF16051F0
:103A200013F0FE4F70471CF0006F03D100200CF024
:103A3000004170470CF0004343EA507010B540EA73
:103A4000CC0000F043F800BF000000924FEA0001F4
:103A5000FFF7ECBE4FF000414FF00000A1F5002150
:103A60007047000041000B0ED3F19E0208D950F4BC
:103A700000034FEA032323FA02F048BF4042704795
:103A800010B500F023F800BF499224800020704751
:103A90006FF0004282EA20007047000010F0004101
:103AA00048BF4042B0FA80F310FA03F2C3F19D031D
:103AB0000BD051EAC35101EB1220530638BF7047B7
:103AC00000F1010008BF20F0010070470EF1020E66
:103AD0002EF0030E5EF8044B244204D44FEA410258
:103AE000B2F17F4F11D84FEA4003B3F17F4F0CD8AA
:103AF0000ED14FEAD07CB2F17F4F0CEB4C0C0CF1A5
:103B0000020C08BF4CEBD17C04E04FF0080C01E044
:103B10004FEAD17C0CEB4C0324FA03F404F00704C5
:103B2000B4F1040C06D20EEB840CBDE810404CF04E
:103B3000010C6047DFE80CF0070802024FF000407C
:103B4000A0F5800010BD0846420018BFD2F1807277
:103B500088BF00F0004010BDFF2141EAD050C005F1
:103B600070470000843B0008000000205400000063
:103B70006C010008D83B0008540000203407000006
:103B80008801000800A24A040000000000000000B4
:103B900001020304060708090000000000000000FD
:103BA0000000000000000000000000000000000015
:103BB0000000000000000000000000000000000005
:103BC00000000000000001020304010203040607D4
:083BD0000809020406080000C8
:0400000508000131BD
:00000001FF
